{
  "contractName": "DEX",
  "abi": [
    {
      "inputs": [
        {
          "internalType": "address",
          "name": "token_",
          "type": "address"
        }
      ],
      "stateMutability": "nonpayable",
      "type": "constructor"
    },
    {
      "inputs": [],
      "name": "totalLiquidity",
      "outputs": [
        {
          "internalType": "uint256",
          "name": "",
          "type": "uint256"
        }
      ],
      "stateMutability": "view",
      "type": "function",
      "constant": true
    },
    {
      "inputs": [
        {
          "internalType": "uint256",
          "name": "tokenAmount",
          "type": "uint256"
        }
      ],
      "name": "init",
      "outputs": [
        {
          "internalType": "uint256",
          "name": "",
          "type": "uint256"
        }
      ],
      "stateMutability": "payable",
      "type": "function",
      "payable": true
    },
    {
      "inputs": [
        {
          "internalType": "uint256",
          "name": "input_amount",
          "type": "uint256"
        },
        {
          "internalType": "uint256",
          "name": "input_reserve",
          "type": "uint256"
        },
        {
          "internalType": "uint256",
          "name": "output_reserve",
          "type": "uint256"
        }
      ],
      "name": "price",
      "outputs": [
        {
          "internalType": "uint256",
          "name": "",
          "type": "uint256"
        }
      ],
      "stateMutability": "pure",
      "type": "function",
      "constant": true
    },
    {
      "inputs": [],
      "name": "ethToToken",
      "outputs": [
        {
          "internalType": "uint256",
          "name": "",
          "type": "uint256"
        }
      ],
      "stateMutability": "payable",
      "type": "function",
      "payable": true
    },
    {
      "inputs": [
        {
          "internalType": "uint256",
          "name": "tokenAmount",
          "type": "uint256"
        }
      ],
      "name": "tokenToEth",
      "outputs": [
        {
          "internalType": "uint256",
          "name": "",
          "type": "uint256"
        }
      ],
      "stateMutability": "payable",
      "type": "function",
      "payable": true
    }
  ],
  "bytecode": "0x608060405234801561001057600080fd5b50604051610b80380380610b808339818101604052810190610032919061008d565b806000806101000a81548173ffffffffffffffffffffffffffffffffffffffff021916908373ffffffffffffffffffffffffffffffffffffffff160217905550506100ff565b600081519050610087816100e8565b92915050565b60006020828403121561009f57600080fd5b60006100ad84828501610078565b91505092915050565b60006100c1826100c8565b9050919050565b600073ffffffffffffffffffffffffffffffffffffffff82169050919050565b6100f1816100b6565b81146100fc57600080fd5b50565b610a728061010e6000396000f3fe60806040526004361061004a5760003560e01c806315770f921461004f5780632071a9f41461007a57806370b2a30f146100b7578063789770f4146100e7578063b7b0422d14610105575b600080fd5b34801561005b57600080fd5b50610064610135565b6040516100719190610827565b60405180910390f35b34801561008657600080fd5b506100a1600480360381019061009c91906106df565b61013b565b6040516100ae9190610827565b60405180910390f35b6100d160048036038101906100cc919061068d565b610181565b6040516100de9190610827565b60405180910390f35b6100ef610347565b6040516100fc9190610827565b60405180910390f35b61011f600480360381019061011a919061068d565b6104d4565b60405161012c9190610827565b60405180910390f35b60015481565b60008061015183866105e390919063ffffffff16565b9050600061016885876105f990919063ffffffff16565b9050808261017691906108a9565b925050509392505050565b60008060008054906101000a900473ffffffffffffffffffffffffffffffffffffffff1673ffffffffffffffffffffffffffffffffffffffff166370a08231306040518263ffffffff1660e01b81526004016101dd919061078c565b60206040518083038186803b1580156101f557600080fd5b505afa158015610209573d6000803e3d6000fd5b505050506040513d601f19601f8201168201806040525081019061022d91906106b6565b9050600061023c84834761013b565b90503373ffffffffffffffffffffffffffffffffffffffff166108fc829081150290604051600060405180830381858888f19350505050158015610284573d6000803e3d6000fd5b5060008054906101000a900473ffffffffffffffffffffffffffffffffffffffff1673ffffffffffffffffffffffffffffffffffffffff166323b872dd3330876040518463ffffffff1660e01b81526004016102e2939291906107a7565b602060405180830381600087803b1580156102fc57600080fd5b505af1158015610310573d6000803e3d6000fd5b505050506040513d601f19601f820116820180604052508101906103349190610664565b61033d57600080fd5b8092505050919050565b60008060008054906101000a900473ffffffffffffffffffffffffffffffffffffffff1673ffffffffffffffffffffffffffffffffffffffff166370a08231306040518263ffffffff1660e01b81526004016103a3919061078c565b60206040518083038186803b1580156103bb57600080fd5b505afa1580156103cf573d6000803e3d6000fd5b505050506040513d601f19601f820116820180604052508101906103f391906106b6565b905060006104143461040e344761060f90919063ffffffff16565b8461013b565b905060008054906101000a900473ffffffffffffffffffffffffffffffffffffffff1673ffffffffffffffffffffffffffffffffffffffff1663a9059cbb33836040518363ffffffff1660e01b81526004016104719291906107de565b602060405180830381600087803b15801561048b57600080fd5b505af115801561049f573d6000803e3d6000fd5b505050506040513d601f19601f820116820180604052508101906104c39190610664565b6104cc57600080fd5b809250505090565b6000806001541461051a576040517f08c379a000000000000000000000000000000000000000000000000000000000815260040161051190610807565b60405180910390fd5b4760018190555060008054906101000a900473ffffffffffffffffffffffffffffffffffffffff1673ffffffffffffffffffffffffffffffffffffffff166323b872dd3330856040518463ffffffff1660e01b815260040161057e939291906107a7565b602060405180830381600087803b15801561059857600080fd5b505af11580156105ac573d6000803e3d6000fd5b505050506040513d601f19601f820116820180604052508101906105d09190610664565b6105d957600080fd5b6001549050919050565b600081836105f191906108da565b905092915050565b600081836106079190610853565b905092915050565b6000818361061d9190610934565b905092915050565b60008151905061063481610a0e565b92915050565b60008135905061064981610a25565b92915050565b60008151905061065e81610a25565b92915050565b60006020828403121561067657600080fd5b600061068484828501610625565b91505092915050565b60006020828403121561069f57600080fd5b60006106ad8482850161063a565b91505092915050565b6000602082840312156106c857600080fd5b60006106d68482850161064f565b91505092915050565b6000806000606084860312156106f457600080fd5b60006107028682870161063a565b93505060206107138682870161063a565b92505060406107248682870161063a565b9150509250925092565b61073781610968565b82525050565b600061074a602083610842565b91507f5b4445585d3a20696e7420616c726561647920686173206c69717569646974796000830152602082019050919050565b610786816109a6565b82525050565b60006020820190506107a1600083018461072e565b92915050565b60006060820190506107bc600083018661072e565b6107c9602083018561072e565b6107d6604083018461077d565b949350505050565b60006040820190506107f3600083018561072e565b610800602083018461077d565b9392505050565b600060208201905081810360008301526108208161073d565b9050919050565b600060208201905061083c600083018461077d565b92915050565b600082825260208201905092915050565b600061085e826109a6565b9150610869836109a6565b9250827fffffffffffffffffffffffffffffffffffffffffffffffffffffffffffffffff0382111561089e5761089d6109b0565b5b828201905092915050565b60006108b4826109a6565b91506108bf836109a6565b9250826108cf576108ce6109df565b5b828204905092915050565b60006108e5826109a6565b91506108f0836109a6565b9250817fffffffffffffffffffffffffffffffffffffffffffffffffffffffffffffffff0483118215151615610929576109286109b0565b5b828202905092915050565b600061093f826109a6565b915061094a836109a6565b92508282101561095d5761095c6109b0565b5b828203905092915050565b600061097382610986565b9050919050565b60008115159050919050565b600073ffffffffffffffffffffffffffffffffffffffff82169050919050565b6000819050919050565b7f4e487b7100000000000000000000000000000000000000000000000000000000600052601160045260246000fd5b7f4e487b7100000000000000000000000000000000000000000000000000000000600052601260045260246000fd5b610a178161097a565b8114610a2257600080fd5b50565b610a2e816109a6565b8114610a3957600080fd5b5056fea264697066735822122097ba72837986c5ea3361f4fe8e3b9e6a9c28911f90a816d474ced0a8b3bc66ca64736f6c63430008000033",
  "immutableReferences": {},
  "source": "// SPDX-License-Identifier: MIT\r\npragma solidity ^0.8.0;\r\n\r\nimport \"@openzeppelin/contracts/utils/math/SafeMath.sol\";\r\nimport \"@openzeppelin/contracts/token/ERC20/IERC20.sol\";\r\n\r\ncontract DEX {\r\n    using SafeMath for uint256;\r\n    IERC20 wtf_;\r\n    uint256 public totalLiquidity;\r\n\r\n    constructor(address token_) {\r\n        wtf_ = IERC20(token_);\r\n    }\r\n\r\n    function init(uint256 tokenAmount) public payable returns (uint256) {\r\n        require(totalLiquidity == 0, \"[DEX]: int already has liquidity\");\r\n\r\n        totalLiquidity = address(this).balance;\r\n\r\n        require(wtf_.transferFrom(msg.sender, address(this), tokenAmount));\r\n        return totalLiquidity;\r\n    }\r\n\r\n    function price(uint256 input_amount, uint256 input_reserve, uint256 output_reserve) public pure returns(uint256) {\r\n        uint256 numerator = input_amount.mul(output_reserve);\r\n        uint256 denominator = input_amount.add(input_reserve);\r\n        return numerator / denominator;\r\n    }\r\n\r\n    function ethToToken() public payable returns (uint256) {\r\n        uint256 token_reserve = wtf_.balanceOf(address(this));\r\n        uint256 token_bought = price(msg.value, address(this).balance.sub(msg.value), token_reserve);\r\n\r\n        require(wtf_.transfer(msg.sender, token_bought));\r\n\r\n        return token_bought;\r\n    }\r\n\r\n    function tokenToEth(uint256 tokenAmount) public payable returns(uint256) {\r\n        uint256 token_reserve = wtf_.balanceOf(address(this));\r\n        uint256 eth_bought = price(tokenAmount, token_reserve, address(this).balance);\r\n\r\n        // send eth to who's call function\r\n        payable(msg.sender).transfer(eth_bought);\r\n\r\n        // force who's call function to send token to this contract\r\n        // by the way who's call function must be approve the contract with the token\r\n        require(wtf_.transferFrom(msg.sender, address(this), tokenAmount));\r\n\r\n        return eth_bought;\r\n    }\r\n}",
  "sourcePath": "C:/Users/F9Uf/Desktop/work/wtf-slotmachine/contracts/DEX.sol",
  "compiler": {
    "name": "solc",
    "version": "0.8.0+commit.c7dfd78e.Emscripten.clang"
  },
  "schemaVersion": "3.4.0",
  "updatedAt": "2021-05-24T07:25:41.743Z",
  "networkType": "ethereum",
  "devdoc": {
    "kind": "dev",
    "methods": {},
    "version": 1
  },
  "userdoc": {
    "kind": "user",
    "methods": {},
    "version": 1
  }
}