{
  "contractName": "SlotMachine",
  "abi": [
    {
      "inputs": [
        {
          "internalType": "uint256",
          "name": "_pricePerSlot",
          "type": "uint256"
        },
        {
          "internalType": "uint256[]",
          "name": "_rewardsPerRank",
          "type": "uint256[]"
        },
        {
          "internalType": "address",
          "name": "_token",
          "type": "address"
        }
      ],
      "stateMutability": "nonpayable",
      "type": "constructor"
    },
    {
      "anonymous": false,
      "inputs": [
        {
          "indexed": false,
          "internalType": "address",
          "name": "to",
          "type": "address"
        },
        {
          "indexed": false,
          "internalType": "uint256",
          "name": "rewards",
          "type": "uint256"
        }
      ],
      "name": "ClaimRewards",
      "type": "event"
    },
    {
      "anonymous": false,
      "inputs": [
        {
          "components": [
            {
              "internalType": "enum SlotMachine.SlotType",
              "name": "slot1",
              "type": "uint8"
            },
            {
              "internalType": "enum SlotMachine.SlotType",
              "name": "slot2",
              "type": "uint8"
            },
            {
              "internalType": "enum SlotMachine.SlotType",
              "name": "slot3",
              "type": "uint8"
            }
          ],
          "indexed": false,
          "internalType": "struct SlotMachine.SlotInfo[]",
          "name": "slots",
          "type": "tuple[]"
        },
        {
          "indexed": false,
          "internalType": "uint256[]",
          "name": "rewards",
          "type": "uint256[]"
        },
        {
          "indexed": false,
          "internalType": "uint256",
          "name": "totalReward",
          "type": "uint256"
        }
      ],
      "name": "ResultBatch",
      "type": "event"
    },
    {
      "anonymous": false,
      "inputs": [
        {
          "components": [
            {
              "internalType": "enum SlotMachine.SlotType",
              "name": "slot1",
              "type": "uint8"
            },
            {
              "internalType": "enum SlotMachine.SlotType",
              "name": "slot2",
              "type": "uint8"
            },
            {
              "internalType": "enum SlotMachine.SlotType",
              "name": "slot3",
              "type": "uint8"
            }
          ],
          "indexed": false,
          "internalType": "struct SlotMachine.SlotInfo",
          "name": "slot",
          "type": "tuple"
        },
        {
          "indexed": false,
          "internalType": "uint256",
          "name": "reward",
          "type": "uint256"
        }
      ],
      "name": "ResultOne",
      "type": "event"
    },
    {
      "inputs": [],
      "name": "contractBalance",
      "outputs": [
        {
          "internalType": "uint256",
          "name": "",
          "type": "uint256"
        }
      ],
      "stateMutability": "view",
      "type": "function",
      "constant": true
    },
    {
      "inputs": [],
      "name": "name",
      "outputs": [
        {
          "internalType": "string",
          "name": "",
          "type": "string"
        }
      ],
      "stateMutability": "view",
      "type": "function",
      "constant": true
    },
    {
      "inputs": [],
      "name": "pricePerSlot",
      "outputs": [
        {
          "internalType": "uint256",
          "name": "",
          "type": "uint256"
        }
      ],
      "stateMutability": "view",
      "type": "function",
      "constant": true
    },
    {
      "inputs": [
        {
          "internalType": "uint256",
          "name": "",
          "type": "uint256"
        }
      ],
      "name": "rewardsPerRank",
      "outputs": [
        {
          "internalType": "uint256",
          "name": "",
          "type": "uint256"
        }
      ],
      "stateMutability": "view",
      "type": "function",
      "constant": true
    },
    {
      "inputs": [],
      "name": "slotOne",
      "outputs": [],
      "stateMutability": "payable",
      "type": "function",
      "payable": true
    },
    {
      "inputs": [],
      "name": "slotTen",
      "outputs": [],
      "stateMutability": "payable",
      "type": "function",
      "payable": true
    },
    {
      "inputs": [
        {
          "internalType": "address",
          "name": "tokenOwner",
          "type": "address"
        }
      ],
      "name": "rewardOf",
      "outputs": [
        {
          "internalType": "uint256",
          "name": "",
          "type": "uint256"
        }
      ],
      "stateMutability": "view",
      "type": "function",
      "constant": true
    },
    {
      "inputs": [
        {
          "internalType": "address",
          "name": "tokenOwner",
          "type": "address"
        }
      ],
      "name": "historyOf",
      "outputs": [
        {
          "components": [
            {
              "internalType": "enum SlotMachine.SlotType",
              "name": "slot1",
              "type": "uint8"
            },
            {
              "internalType": "enum SlotMachine.SlotType",
              "name": "slot2",
              "type": "uint8"
            },
            {
              "internalType": "enum SlotMachine.SlotType",
              "name": "slot3",
              "type": "uint8"
            }
          ],
          "internalType": "struct SlotMachine.SlotInfo[]",
          "name": "",
          "type": "tuple[]"
        }
      ],
      "stateMutability": "view",
      "type": "function",
      "constant": true
    },
    {
      "inputs": [
        {
          "components": [
            {
              "internalType": "enum SlotMachine.SlotType",
              "name": "slot1",
              "type": "uint8"
            },
            {
              "internalType": "enum SlotMachine.SlotType",
              "name": "slot2",
              "type": "uint8"
            },
            {
              "internalType": "enum SlotMachine.SlotType",
              "name": "slot3",
              "type": "uint8"
            }
          ],
          "internalType": "struct SlotMachine.SlotInfo",
          "name": "slots",
          "type": "tuple"
        }
      ],
      "name": "calculateReward",
      "outputs": [
        {
          "internalType": "uint256",
          "name": "",
          "type": "uint256"
        }
      ],
      "stateMutability": "view",
      "type": "function",
      "constant": true
    },
    {
      "inputs": [],
      "name": "claimRewards",
      "outputs": [],
      "stateMutability": "nonpayable",
      "type": "function"
    }
  ],
  "bytecode": "0x60806040526040518060400160405280601081526020017f57544620536c6f74204d616368696e650000000000000000000000000000000081525060009080519060200190620000519291906200010d565b503480156200005f57600080fd5b5060405162002631380380620026318339818101604052810190620000859190620002df565b3373ffffffffffffffffffffffffffffffffffffffff1631600181905550826002819055508160039080519060200190620000c29291906200019e565b5080600460006101000a81548173ffffffffffffffffffffffffffffffffffffffff021916908373ffffffffffffffffffffffffffffffffffffffff160217905550505050620004b7565b8280546200011b90620003ef565b90600052602060002090601f0160209004810192826200013f57600085556200018b565b82601f106200015a57805160ff19168380011785556200018b565b828001600101855582156200018b579182015b828111156200018a5782518255916020019190600101906200016d565b5b5090506200019a9190620001f0565b5090565b828054828255906000526020600020908101928215620001dd579160200282015b82811115620001dc578251825591602001919060010190620001bf565b5b509050620001ec9190620001f0565b5090565b5b808211156200020b576000816000905550600101620001f1565b5090565b600062000226620002208462000382565b6200034e565b905080838252602082019050828560208602820111156200024657600080fd5b60005b858110156200027a57816200025f8882620002c8565b84526020840193506020830192505060018101905062000249565b5050509392505050565b600081519050620002958162000483565b92915050565b600082601f830112620002ad57600080fd5b8151620002bf8482602086016200020f565b91505092915050565b600081519050620002d9816200049d565b92915050565b600080600060608486031215620002f557600080fd5b60006200030586828701620002c8565b935050602084015167ffffffffffffffff8111156200032357600080fd5b62000331868287016200029b565b9250506040620003448682870162000284565b9150509250925092565b6000604051905081810181811067ffffffffffffffff8211171562000378576200037762000454565b5b8060405250919050565b600067ffffffffffffffff821115620003a0576200039f62000454565b5b602082029050602081019050919050565b6000620003be82620003c5565b9050919050565b600073ffffffffffffffffffffffffffffffffffffffff82169050919050565b6000819050919050565b600060028204905060018216806200040857607f821691505b602082108114156200041f576200041e62000425565b5b50919050565b7f4e487b7100000000000000000000000000000000000000000000000000000000600052602260045260246000fd5b7f4e487b7100000000000000000000000000000000000000000000000000000000600052604160045260246000fd5b6200048e81620003b1565b81146200049a57600080fd5b50565b620004a881620003e5565b8114620004b457600080fd5b50565b61216a80620004c76000396000f3fe6080604052600436106100915760003560e01c806360a75f211161005957806360a75f211461017d5780636c6dc85d146101875780638b7afe2e14610191578063a6045002146101bc578063ba98a00b146101f957610091565b806306fdde03146100965780630bb4b6aa146100c15780631d62ebd9146100fe578063372500ab1461013b5780635d6080c714610152575b600080fd5b3480156100a257600080fd5b506100ab610236565b6040516100b89190611cce565b60405180910390f35b3480156100cd57600080fd5b506100e860048036038101906100e391906118ba565b6102c4565b6040516100f59190611c67565b60405180910390f35b34801561010a57600080fd5b50610125600480360381019061012091906118ba565b6104f3565b6040516101329190611d59565b60405180910390f35b34801561014757600080fd5b5061015061053c565b005b34801561015e57600080fd5b5061016761068b565b6040516101749190611d59565b60405180910390f35b610185610691565b005b61018f610b40565b005b34801561019d57600080fd5b506101a66111b1565b6040516101b39190611d59565b60405180910390f35b3480156101c857600080fd5b506101e360048036038101906101de919061190c565b6111b7565b6040516101f09190611d59565b60405180910390f35b34801561020557600080fd5b50610220600480360381019061021b9190611935565b6116fb565b60405161022d9190611d59565b60405180910390f35b6000805461024390611f83565b80601f016020809104026020016040519081016040528092919081815260200182805461026f90611f83565b80156102bc5780601f10610291576101008083540402835291602001916102bc565b820191906000526020600020905b81548152906001019060200180831161029f57829003601f168201915b505050505081565b6060600660008373ffffffffffffffffffffffffffffffffffffffff1673ffffffffffffffffffffffffffffffffffffffff168152602001908152602001600020805480602002602001604051908101604052809291908181526020016000905b828210156104e8578382906000526020600020016040518060600160405290816000820160009054906101000a900460ff16600481111561038f577f4e487b7100000000000000000000000000000000000000000000000000000000600052602160045260246000fd5b60048111156103c7577f4e487b7100000000000000000000000000000000000000000000000000000000600052602160045260246000fd5b81526020016000820160019054906101000a900460ff166004811115610416577f4e487b7100000000000000000000000000000000000000000000000000000000600052602160045260246000fd5b600481111561044e577f4e487b7100000000000000000000000000000000000000000000000000000000600052602160045260246000fd5b81526020016000820160029054906101000a900460ff16600481111561049d577f4e487b7100000000000000000000000000000000000000000000000000000000600052602160045260246000fd5b60048111156104d5577f4e487b7100000000000000000000000000000000000000000000000000000000600052602160045260246000fd5b8152505081526020019060010190610325565b505050509050919050565b6000600560008373ffffffffffffffffffffffffffffffffffffffff1673ffffffffffffffffffffffffffffffffffffffff168152602001908152602001600020549050919050565b6000610547336104f3565b90506000811161058c576040517f08c379a000000000000000000000000000000000000000000000000000000000815260040161058390611cf0565b60405180910390fd5b600460009054906101000a900473ffffffffffffffffffffffffffffffffffffffff1673ffffffffffffffffffffffffffffffffffffffff1663a9059cbb33670de0b6b3a7640000846105df9190611e89565b6040518363ffffffff1660e01b81526004016105fc929190611c3e565b602060405180830381600087803b15801561061657600080fd5b505af115801561062a573d6000803e3d6000fd5b505050506040513d601f19601f8201168201806040525081019061064e91906118e3565b507f1f89f96333d3133000ee447473151fa9606543368f02271c9d95ae14f13bcc673382604051610680929190611c3e565b60405180910390a150565b60025481565b6000600460009054906101000a900473ffffffffffffffffffffffffffffffffffffffff1673ffffffffffffffffffffffffffffffffffffffff166370a08231336040518263ffffffff1660e01b81526004016106ee9190611bec565b60206040518083038186803b15801561070657600080fd5b505afa15801561071a573d6000803e3d6000fd5b505050506040513d601f19601f8201168201806040525081019061073e919061195e565b9050600254811015610785576040517f08c379a000000000000000000000000000000000000000000000000000000000815260040161077c90611d10565b60405180910390fd5b60006002541161079457600080fd5b600460009054906101000a900473ffffffffffffffffffffffffffffffffffffffff1673ffffffffffffffffffffffffffffffffffffffff166323b872dd33306002546040518463ffffffff1660e01b81526004016107f593929190611c07565b602060405180830381600087803b15801561080f57600080fd5b505af1158015610823573d6000803e3d6000fd5b505050506040513d601f19601f8201168201806040525081019061084791906118e3565b50600061085261171f565b9050600061085e61171f565b9050600061086a61171f565b9050600060405180606001604052808560048111156108b2577f4e487b7100000000000000000000000000000000000000000000000000000000600052602160045260246000fd5b81526020018460048111156108f0577f4e487b7100000000000000000000000000000000000000000000000000000000600052602160045260246000fd5b815260200183600481111561092e577f4e487b7100000000000000000000000000000000000000000000000000000000600052602160045260246000fd5b8152509050600061093e826111b7565b905080600560003373ffffffffffffffffffffffffffffffffffffffff1673ffffffffffffffffffffffffffffffffffffffff168152602001908152602001600020600082825461098f9190611e33565b92505081905550600660003373ffffffffffffffffffffffffffffffffffffffff1673ffffffffffffffffffffffffffffffffffffffff168152602001908152602001600020829080600181540180825580915050600190039060005260206000200160009091909190915060008201518160000160006101000a81548160ff02191690836004811115610a4c577f4e487b7100000000000000000000000000000000000000000000000000000000600052602160045260246000fd5b021790555060208201518160000160016101000a81548160ff02191690836004811115610aa2577f4e487b7100000000000000000000000000000000000000000000000000000000600052602160045260246000fd5b021790555060408201518160000160026101000a81548160ff02191690836004811115610af8577f4e487b7100000000000000000000000000000000000000000000000000000000600052602160045260246000fd5b021790555050507ffd1376f2539f93565cb7adcf0adc3368c001f7cba43dfc7ae9da2cb49e9bb5d78282604051610b30929190611d30565b60405180910390a1505050505050565b6000600254600a610b519190611e89565b90506000600460009054906101000a900473ffffffffffffffffffffffffffffffffffffffff1673ffffffffffffffffffffffffffffffffffffffff166370a08231336040518263ffffffff1660e01b8152600401610bb09190611bec565b60206040518083038186803b158015610bc857600080fd5b505afa158015610bdc573d6000803e3d6000fd5b505050506040513d601f19601f82011682018060405250810190610c00919061195e565b905081811015610c45576040517f08c379a0000000000000000000000000000000000000000000000000000000008152600401610c3c90611d10565b60405180910390fd5b600060025411610c5457600080fd5b600460009054906101000a900473ffffffffffffffffffffffffffffffffffffffff1673ffffffffffffffffffffffffffffffffffffffff166323b872dd3330856040518463ffffffff1660e01b8152600401610cb393929190611c07565b602060405180830381600087803b158015610ccd57600080fd5b505af1158015610ce1573d6000803e3d6000fd5b505050506040513d601f19601f82011682018060405250810190610d0591906118e3565b506000600a67ffffffffffffffff811115610d49577f4e487b7100000000000000000000000000000000000000000000000000000000600052604160045260246000fd5b604051908082528060200260200182016040528015610d8257816020015b610d6f611728565b815260200190600190039081610d675790505b5090506000600a67ffffffffffffffff811115610dc8577f4e487b7100000000000000000000000000000000000000000000000000000000600052604160045260246000fd5b604051908082528060200260200182016040528015610df65781602001602082028036833780820191505090505b5090506000805b600a811015611118576000610e1061171f565b90506000610e1c61171f565b90506000610e2861171f565b905060006040518060600160405280856004811115610e70577f4e487b7100000000000000000000000000000000000000000000000000000000600052602160045260246000fd5b8152602001846004811115610eae577f4e487b7100000000000000000000000000000000000000000000000000000000600052602160045260246000fd5b8152602001836004811115610eec577f4e487b7100000000000000000000000000000000000000000000000000000000600052602160045260246000fd5b81525090506000610efc826111b7565b905081898781518110610f38577f4e487b7100000000000000000000000000000000000000000000000000000000600052603260045260246000fd5b602002602001018190525080888781518110610f7d577f4e487b7100000000000000000000000000000000000000000000000000000000600052603260045260246000fd5b6020026020010181815250508087610f959190611e33565b9650600660003373ffffffffffffffffffffffffffffffffffffffff1673ffffffffffffffffffffffffffffffffffffffff168152602001908152602001600020829080600181540180825580915050600190039060005260206000200160009091909190915060008201518160000160006101000a81548160ff0219169083600481111561104d577f4e487b7100000000000000000000000000000000000000000000000000000000600052602160045260246000fd5b021790555060208201518160000160016101000a81548160ff021916908360048111156110a3577f4e487b7100000000000000000000000000000000000000000000000000000000600052602160045260246000fd5b021790555060408201518160000160026101000a81548160ff021916908360048111156110f9577f4e487b7100000000000000000000000000000000000000000000000000000000600052602160045260246000fd5b021790555050505050505050808061111090611fb5565b915050610dfd565b5080600560003373ffffffffffffffffffffffffffffffffffffffff1673ffffffffffffffffffffffffffffffffffffffff16815260200190815260200160002060008282546111689190611e33565b925050819055507f58479347dae38abe703f730001ab886a8af4e5b18b072a9ca0980e323e472d1d8383836040516111a293929190611c89565b60405180910390a15050505050565b60015481565b6000816020015160048111156111f6577f4e487b7100000000000000000000000000000000000000000000000000000000600052602160045260246000fd5b82600001516004811115611233577f4e487b7100000000000000000000000000000000000000000000000000000000600052602160045260246000fd5b1480156112b7575081604001516004811115611278577f4e487b7100000000000000000000000000000000000000000000000000000000600052602160045260246000fd5b826020015160048111156112b5577f4e487b7100000000000000000000000000000000000000000000000000000000600052602160045260246000fd5b145b156116ad57600060048111156112f6577f4e487b7100000000000000000000000000000000000000000000000000000000600052602160045260246000fd5b82600001516004811115611333577f4e487b7100000000000000000000000000000000000000000000000000000000600052602160045260246000fd5b1415611386576003600181548110611374577f4e487b7100000000000000000000000000000000000000000000000000000000600052603260045260246000fd5b906000526020600020015490506116f6565b600160048111156113c0577f4e487b7100000000000000000000000000000000000000000000000000000000600052602160045260246000fd5b826000015160048111156113fd577f4e487b7100000000000000000000000000000000000000000000000000000000600052602160045260246000fd5b141561145057600360028154811061143e577f4e487b7100000000000000000000000000000000000000000000000000000000600052603260045260246000fd5b906000526020600020015490506116f6565b6003600481111561148a577f4e487b7100000000000000000000000000000000000000000000000000000000600052602160045260246000fd5b826000015160048111156114c7577f4e487b7100000000000000000000000000000000000000000000000000000000600052602160045260246000fd5b14156115195760038081548110611507577f4e487b7100000000000000000000000000000000000000000000000000000000600052603260045260246000fd5b906000526020600020015490506116f6565b600480811115611552577f4e487b7100000000000000000000000000000000000000000000000000000000600052602160045260246000fd5b8260000151600481111561158f577f4e487b7100000000000000000000000000000000000000000000000000000000600052602160045260246000fd5b14156115e25760036004815481106115d0577f4e487b7100000000000000000000000000000000000000000000000000000000600052603260045260246000fd5b906000526020600020015490506116f6565b6002600481111561161c577f4e487b7100000000000000000000000000000000000000000000000000000000600052602160045260246000fd5b82600001516004811115611659577f4e487b7100000000000000000000000000000000000000000000000000000000600052602160045260246000fd5b14156116ac57600360058154811061169a577f4e487b7100000000000000000000000000000000000000000000000000000000600052603260045260246000fd5b906000526020600020015490506116f6565b5b60036000815481106116e8577f4e487b7100000000000000000000000000000000000000000000000000000000600052603260045260246000fd5b906000526020600020015490505b919050565b6003818154811061170b57600080fd5b906000526020600020016000915090505481565b60006004905090565b60405180606001604052806000600481111561176d577f4e487b7100000000000000000000000000000000000000000000000000000000600052602160045260246000fd5b8152602001600060048111156117ac577f4e487b7100000000000000000000000000000000000000000000000000000000600052602160045260246000fd5b8152602001600060048111156117eb577f4e487b7100000000000000000000000000000000000000000000000000000000600052602160045260246000fd5b81525090565b600081359050611800816120df565b92915050565b600081519050611815816120f6565b92915050565b60008135905061182a8161210d565b92915050565b60006060828403121561184257600080fd5b61184c6060611d74565b9050600061185c8482850161181b565b60008301525060206118708482850161181b565b60208301525060406118848482850161181b565b60408301525092915050565b60008135905061189f8161211d565b92915050565b6000815190506118b48161211d565b92915050565b6000602082840312156118cc57600080fd5b60006118da848285016117f1565b91505092915050565b6000602082840312156118f557600080fd5b600061190384828501611806565b91505092915050565b60006060828403121561191e57600080fd5b600061192c84828501611830565b91505092915050565b60006020828403121561194757600080fd5b600061195584828501611890565b91505092915050565b60006020828403121561197057600080fd5b600061197e848285016118a5565b91505092915050565b60006119938383611b4a565b60608301905092915050565b60006119ab8383611bce565b60208301905092915050565b6119c081611ee3565b82525050565b60006119d182611dc5565b6119db8185611e00565b93506119e683611da5565b8060005b83811015611a175781516119fe8882611987565b9750611a0983611de6565b9250506001810190506119ea565b5085935050505092915050565b6000611a2f82611dd0565b611a398185611e11565b9350611a4483611db5565b8060005b83811015611a75578151611a5c888261199f565b9750611a6783611df3565b925050600181019050611a48565b5085935050505092915050565b611a8b81611f3e565b82525050565b6000611a9c82611ddb565b611aa68185611e22565b9350611ab6818560208601611f50565b611abf816120ba565b840191505092915050565b6000611ad7600983611e22565b91507f6e6f2072657761726400000000000000000000000000000000000000000000006000830152602082019050919050565b6000611b17600e83611e22565b91507f416d6f756e7420746f6f206c6f770000000000000000000000000000000000006000830152602082019050919050565b606082016000820151611b606000850182611a82565b506020820151611b736020850182611a82565b506040820151611b866040850182611a82565b50505050565b606082016000820151611ba26000850182611a82565b506020820151611bb56020850182611a82565b506040820151611bc86040850182611a82565b50505050565b611bd781611f34565b82525050565b611be681611f34565b82525050565b6000602082019050611c0160008301846119b7565b92915050565b6000606082019050611c1c60008301866119b7565b611c2960208301856119b7565b611c366040830184611bdd565b949350505050565b6000604082019050611c5360008301856119b7565b611c606020830184611bdd565b9392505050565b60006020820190508181036000830152611c8181846119c6565b905092915050565b60006060820190508181036000830152611ca381866119c6565b90508181036020830152611cb78185611a24565b9050611cc66040830184611bdd565b949350505050565b60006020820190508181036000830152611ce88184611a91565b905092915050565b60006020820190508181036000830152611d0981611aca565b9050919050565b60006020820190508181036000830152611d2981611b0a565b9050919050565b6000608082019050611d456000830185611b8c565b611d526060830184611bdd565b9392505050565b6000602082019050611d6e6000830184611bdd565b92915050565b6000604051905081810181811067ffffffffffffffff82111715611d9b57611d9a61208b565b5b8060405250919050565b6000819050602082019050919050565b6000819050602082019050919050565b600081519050919050565b600081519050919050565b600081519050919050565b6000602082019050919050565b6000602082019050919050565b600082825260208201905092915050565b600082825260208201905092915050565b600082825260208201905092915050565b6000611e3e82611f34565b9150611e4983611f34565b9250827fffffffffffffffffffffffffffffffffffffffffffffffffffffffffffffffff03821115611e7e57611e7d611ffe565b5b828201905092915050565b6000611e9482611f34565b9150611e9f83611f34565b9250817fffffffffffffffffffffffffffffffffffffffffffffffffffffffffffffffff0483118215151615611ed857611ed7611ffe565b5b828202905092915050565b6000611eee82611f14565b9050919050565b60008115159050919050565b6000819050611f0f826120cb565b919050565b600073ffffffffffffffffffffffffffffffffffffffff82169050919050565b6000819050919050565b6000611f4982611f01565b9050919050565b60005b83811015611f6e578082015181840152602081019050611f53565b83811115611f7d576000848401525b50505050565b60006002820490506001821680611f9b57607f821691505b60208210811415611faf57611fae61205c565b5b50919050565b6000611fc082611f34565b91507fffffffffffffffffffffffffffffffffffffffffffffffffffffffffffffffff821415611ff357611ff2611ffe565b5b600182019050919050565b7f4e487b7100000000000000000000000000000000000000000000000000000000600052601160045260246000fd5b7f4e487b7100000000000000000000000000000000000000000000000000000000600052602160045260246000fd5b7f4e487b7100000000000000000000000000000000000000000000000000000000600052602260045260246000fd5b7f4e487b7100000000000000000000000000000000000000000000000000000000600052604160045260246000fd5b6000601f19601f8301169050919050565b600581106120dc576120db61202d565b5b50565b6120e881611ee3565b81146120f357600080fd5b50565b6120ff81611ef5565b811461210a57600080fd5b50565b6005811061211a57600080fd5b50565b61212681611f34565b811461213157600080fd5b5056fea26469706673582212201ae7df378f607ff7a2d173b9177e7c4cbdb9cba1f92e3cda84adba62ba09cff964736f6c63430008000033",
  "immutableReferences": {},
  "source": "// SPDX-License-Identifier: MIT\r\npragma solidity ^0.8.0;\r\n\r\nimport \"@openzeppelin/contracts/token/ERC20/IERC20.sol\";\r\n\r\ncontract SlotMachine {\r\n  string public name = \"WTF Slot Machine\";\r\n\r\n  uint256 public contractBalance;\r\n  uint256 public pricePerSlot;\r\n  uint256[] public rewardsPerRank;\r\n\r\n  IERC20 internal wtf_;\r\n\r\n  mapping (address => uint256) playerRewards;\r\n  mapping (address => SlotInfo[]) playerHistory;\r\n\r\n  event ResultOne(\r\n    SlotInfo slot,\r\n    uint256 reward\r\n  );\r\n\r\n  event ResultBatch(\r\n    SlotInfo[] slots,\r\n    uint256[] rewards,\r\n    uint256 totalReward\r\n  );\r\n\r\n  event ClaimRewards(\r\n    address to,\r\n    uint256 rewards\r\n  );\r\n\r\n  constructor(\r\n    uint256 _pricePerSlot,\r\n    uint256[] memory _rewardsPerRank,\r\n    address _token\r\n  ) {\r\n    contractBalance = msg.sender.balance;\r\n    pricePerSlot = _pricePerSlot;\r\n    rewardsPerRank = _rewardsPerRank;\r\n    wtf_ = IERC20(_token);\r\n  }\r\n\r\n  enum SlotType {\r\n    BTC,\r\n    ETH,\r\n    DOGE,\r\n    BNB,\r\n    CAKE\r\n  }\r\n\r\n  struct SlotInfo {\r\n    SlotType slot1;\r\n    SlotType slot2;\r\n    SlotType slot3;\r\n  }\r\n\r\n\r\n  function slotOne() public payable {\r\n    uint256 balnace = wtf_.balanceOf(msg.sender);\r\n    require(balnace >= pricePerSlot, \"Amount too low\");\r\n    require(pricePerSlot > 0);\r\n\r\n    wtf_.transferFrom(msg.sender, address(this), pricePerSlot);\r\n\r\n    SlotType slot1 = randomSlot();\r\n    SlotType slot2 = randomSlot();\r\n    SlotType slot3 = randomSlot();\r\n\r\n    SlotInfo memory newOneSlot = SlotInfo(\r\n      slot1,\r\n      slot2,\r\n      slot3\r\n    );\r\n\r\n    uint256 reward = calculateReward(newOneSlot);\r\n\r\n    playerRewards[msg.sender] += reward;\r\n    playerHistory[msg.sender].push(newOneSlot);\r\n\r\n    emit ResultOne(newOneSlot, reward);\r\n  }\r\n\r\n  function slotTen() public payable {\r\n    uint256 totalPaid = 10 * pricePerSlot;\r\n    uint256 balnace = wtf_.balanceOf(msg.sender);\r\n    require(balnace >= totalPaid, \"Amount too low\");\r\n    require(pricePerSlot > 0);\r\n\r\n    wtf_.transferFrom(msg.sender, address(this), totalPaid);\r\n\r\n    SlotInfo[] memory slotBatch = new SlotInfo[](10);\r\n    uint256[] memory rewards = new uint256[](10);\r\n    uint256 rewardBatch = 0;\r\n\r\n    for (uint256 i = 0; i < 10; i++) {\r\n      SlotType slot1 = randomSlot();\r\n      SlotType slot2 = randomSlot();\r\n      SlotType slot3 = randomSlot();\r\n\r\n      SlotInfo memory newOneSlot = SlotInfo(\r\n        slot1,\r\n        slot2,\r\n        slot3\r\n      );\r\n\r\n      uint256 reward = calculateReward(newOneSlot);\r\n\r\n      slotBatch[i] = newOneSlot;\r\n      rewards[i] = reward;\r\n      rewardBatch += reward;\r\n\r\n      playerHistory[msg.sender].push(newOneSlot);\r\n    }\r\n\r\n    playerRewards[msg.sender] += rewardBatch;\r\n\r\n    emit ResultBatch(slotBatch, rewards, rewardBatch);\r\n\r\n  }\r\n\r\n  function rewardOf(address tokenOwner) public view returns(uint256) {\r\n    return playerRewards[tokenOwner];\r\n  }\r\n\r\n  function historyOf(address tokenOwner) public view returns(SlotInfo[] memory) {\r\n    return playerHistory[tokenOwner];\r\n  }\r\n\r\n  function calculateReward(SlotInfo memory slots) public view returns (uint256) {\r\n    if (slots.slot1 == slots.slot2 && slots.slot2 == slots.slot3) {\r\n      if (slots.slot1 == SlotType.BTC) return rewardsPerRank[1];\r\n      if (slots.slot1 == SlotType.ETH) return rewardsPerRank[2];\r\n      if (slots.slot1 == SlotType.BNB) return rewardsPerRank[3];\r\n      if (slots.slot1 == SlotType.CAKE) return rewardsPerRank[4];\r\n      if (slots.slot1 == SlotType.DOGE) return rewardsPerRank[5];\r\n    }\r\n    return rewardsPerRank[0];\r\n  }\r\n\r\n  function randomSlot() internal pure returns (SlotType) {\r\n    // TODO: logic to random slot with probability\r\n    return SlotType.CAKE;\r\n  }\r\n\r\n  function claimRewards() public {\r\n    uint256 rewards = rewardOf(msg.sender);\r\n    require(rewards > 0, \"no reward\");\r\n\r\n    wtf_.transfer(msg.sender, rewards*(10**18));\r\n\r\n    emit ClaimRewards(msg.sender, rewards);\r\n  }\r\n}",
  "sourcePath": "C:/Users/F9Uf/Desktop/work/wtf-slotmachine/contracts/SlotMachine.sol",
  "compiler": {
    "name": "solc",
    "version": "0.8.0+commit.c7dfd78e.Emscripten.clang"
  },
  "schemaVersion": "3.4.0",
  "updatedAt": "2021-05-02T10:22:58.983Z",
  "networkType": "ethereum",
  "devdoc": {
    "kind": "dev",
    "methods": {},
    "version": 1
  },
  "userdoc": {
    "kind": "user",
    "methods": {},
    "version": 1
  }
}