{
  "contractName": "SlotMachine",
  "abi": [
    {
      "inputs": [
        {
          "internalType": "uint256",
          "name": "_pricePerSlot",
          "type": "uint256"
        },
        {
          "internalType": "uint256[]",
          "name": "_rewardsPerRank",
          "type": "uint256[]"
        },
        {
          "internalType": "address",
          "name": "_token",
          "type": "address"
        }
      ],
      "stateMutability": "nonpayable",
      "type": "constructor"
    },
    {
      "anonymous": false,
      "inputs": [
        {
          "indexed": false,
          "internalType": "address",
          "name": "to",
          "type": "address"
        },
        {
          "indexed": false,
          "internalType": "uint256",
          "name": "rewards",
          "type": "uint256"
        }
      ],
      "name": "ClaimRewards",
      "type": "event"
    },
    {
      "anonymous": false,
      "inputs": [
        {
          "components": [
            {
              "internalType": "enum SlotMachine.SlotType",
              "name": "slot1",
              "type": "uint8"
            },
            {
              "internalType": "enum SlotMachine.SlotType",
              "name": "slot2",
              "type": "uint8"
            },
            {
              "internalType": "enum SlotMachine.SlotType",
              "name": "slot3",
              "type": "uint8"
            }
          ],
          "indexed": false,
          "internalType": "struct SlotMachine.SlotInfo[]",
          "name": "slots",
          "type": "tuple[]"
        },
        {
          "indexed": false,
          "internalType": "uint256[]",
          "name": "rewards",
          "type": "uint256[]"
        },
        {
          "indexed": false,
          "internalType": "uint256",
          "name": "totalReward",
          "type": "uint256"
        }
      ],
      "name": "ResultBatch",
      "type": "event"
    },
    {
      "anonymous": false,
      "inputs": [
        {
          "components": [
            {
              "internalType": "enum SlotMachine.SlotType",
              "name": "slot1",
              "type": "uint8"
            },
            {
              "internalType": "enum SlotMachine.SlotType",
              "name": "slot2",
              "type": "uint8"
            },
            {
              "internalType": "enum SlotMachine.SlotType",
              "name": "slot3",
              "type": "uint8"
            }
          ],
          "indexed": false,
          "internalType": "struct SlotMachine.SlotInfo",
          "name": "slot",
          "type": "tuple"
        },
        {
          "indexed": false,
          "internalType": "uint256",
          "name": "reward",
          "type": "uint256"
        }
      ],
      "name": "ResultOne",
      "type": "event"
    },
    {
      "inputs": [
        {
          "internalType": "uint256",
          "name": "",
          "type": "uint256"
        }
      ],
      "name": "coins",
      "outputs": [
        {
          "internalType": "enum SlotMachine.SlotType",
          "name": "",
          "type": "uint8"
        }
      ],
      "stateMutability": "view",
      "type": "function",
      "constant": true
    },
    {
      "inputs": [],
      "name": "contractBalance",
      "outputs": [
        {
          "internalType": "uint256",
          "name": "",
          "type": "uint256"
        }
      ],
      "stateMutability": "view",
      "type": "function",
      "constant": true
    },
    {
      "inputs": [],
      "name": "name",
      "outputs": [
        {
          "internalType": "string",
          "name": "",
          "type": "string"
        }
      ],
      "stateMutability": "view",
      "type": "function",
      "constant": true
    },
    {
      "inputs": [],
      "name": "pricePerSlot",
      "outputs": [
        {
          "internalType": "uint256",
          "name": "",
          "type": "uint256"
        }
      ],
      "stateMutability": "view",
      "type": "function",
      "constant": true
    },
    {
      "inputs": [
        {
          "internalType": "uint256",
          "name": "",
          "type": "uint256"
        }
      ],
      "name": "rewardsPerRank",
      "outputs": [
        {
          "internalType": "uint256",
          "name": "",
          "type": "uint256"
        }
      ],
      "stateMutability": "view",
      "type": "function",
      "constant": true
    },
    {
      "inputs": [],
      "name": "slotOne",
      "outputs": [],
      "stateMutability": "payable",
      "type": "function",
      "payable": true
    },
    {
      "inputs": [],
      "name": "slotTen",
      "outputs": [],
      "stateMutability": "payable",
      "type": "function",
      "payable": true
    },
    {
      "inputs": [
        {
          "internalType": "address",
          "name": "tokenOwner",
          "type": "address"
        }
      ],
      "name": "rewardOf",
      "outputs": [
        {
          "internalType": "uint256",
          "name": "",
          "type": "uint256"
        }
      ],
      "stateMutability": "view",
      "type": "function",
      "constant": true
    },
    {
      "inputs": [
        {
          "internalType": "address",
          "name": "tokenOwner",
          "type": "address"
        }
      ],
      "name": "historyOf",
      "outputs": [
        {
          "components": [
            {
              "internalType": "enum SlotMachine.SlotType",
              "name": "slot1",
              "type": "uint8"
            },
            {
              "internalType": "enum SlotMachine.SlotType",
              "name": "slot2",
              "type": "uint8"
            },
            {
              "internalType": "enum SlotMachine.SlotType",
              "name": "slot3",
              "type": "uint8"
            }
          ],
          "internalType": "struct SlotMachine.SlotInfo[]",
          "name": "",
          "type": "tuple[]"
        }
      ],
      "stateMutability": "view",
      "type": "function",
      "constant": true
    },
    {
      "inputs": [
        {
          "components": [
            {
              "internalType": "enum SlotMachine.SlotType",
              "name": "slot1",
              "type": "uint8"
            },
            {
              "internalType": "enum SlotMachine.SlotType",
              "name": "slot2",
              "type": "uint8"
            },
            {
              "internalType": "enum SlotMachine.SlotType",
              "name": "slot3",
              "type": "uint8"
            }
          ],
          "internalType": "struct SlotMachine.SlotInfo",
          "name": "slots",
          "type": "tuple"
        }
      ],
      "name": "calculateReward",
      "outputs": [
        {
          "internalType": "uint256",
          "name": "",
          "type": "uint256"
        }
      ],
      "stateMutability": "view",
      "type": "function",
      "constant": true
    },
    {
      "inputs": [],
      "name": "claimRewards",
      "outputs": [],
      "stateMutability": "nonpayable",
      "type": "function"
    }
  ],
  "bytecode": "0x60806040526040518060400160405280601081526020017f57544620536c6f74204d616368696e6500000000000000000000000000000000815250600090805190602001906200005192919062003050565b5060405180610c8001604052806000600481111562000099577f4e487b7100000000000000000000000000000000000000000000000000000000600052602160045260246000fd5b6004811115620000d2577f4e487b7100000000000000000000000000000000000000000000000000000000600052602160045260246000fd5b81526020016000600481111562000112577f4e487b7100000000000000000000000000000000000000000000000000000000600052602160045260246000fd5b60048111156200014b577f4e487b7100000000000000000000000000000000000000000000000000000000600052602160045260246000fd5b8152602001600060048111156200018b577f4e487b7100000000000000000000000000000000000000000000000000000000600052602160045260246000fd5b6004811115620001c4577f4e487b7100000000000000000000000000000000000000000000000000000000600052602160045260246000fd5b81526020016000600481111562000204577f4e487b7100000000000000000000000000000000000000000000000000000000600052602160045260246000fd5b60048111156200023d577f4e487b7100000000000000000000000000000000000000000000000000000000600052602160045260246000fd5b8152602001600060048111156200027d577f4e487b7100000000000000000000000000000000000000000000000000000000600052602160045260246000fd5b6004811115620002b6577f4e487b7100000000000000000000000000000000000000000000000000000000600052602160045260246000fd5b815260200160006004811115620002f6577f4e487b7100000000000000000000000000000000000000000000000000000000600052602160045260246000fd5b60048111156200032f577f4e487b7100000000000000000000000000000000000000000000000000000000600052602160045260246000fd5b8152602001600160048111156200036f577f4e487b7100000000000000000000000000000000000000000000000000000000600052602160045260246000fd5b6004811115620003a8577f4e487b7100000000000000000000000000000000000000000000000000000000600052602160045260246000fd5b815260200160016004811115620003e8577f4e487b7100000000000000000000000000000000000000000000000000000000600052602160045260246000fd5b600481111562000421577f4e487b7100000000000000000000000000000000000000000000000000000000600052602160045260246000fd5b81526020016001600481111562000461577f4e487b7100000000000000000000000000000000000000000000000000000000600052602160045260246000fd5b60048111156200049a577f4e487b7100000000000000000000000000000000000000000000000000000000600052602160045260246000fd5b815260200160016004811115620004da577f4e487b7100000000000000000000000000000000000000000000000000000000600052602160045260246000fd5b600481111562000513577f4e487b7100000000000000000000000000000000000000000000000000000000600052602160045260246000fd5b81526020016001600481111562000553577f4e487b7100000000000000000000000000000000000000000000000000000000600052602160045260246000fd5b60048111156200058c577f4e487b7100000000000000000000000000000000000000000000000000000000600052602160045260246000fd5b815260200160016004811115620005cc577f4e487b7100000000000000000000000000000000000000000000000000000000600052602160045260246000fd5b600481111562000605577f4e487b7100000000000000000000000000000000000000000000000000000000600052602160045260246000fd5b81526020016001600481111562000645577f4e487b7100000000000000000000000000000000000000000000000000000000600052602160045260246000fd5b60048111156200067e577f4e487b7100000000000000000000000000000000000000000000000000000000600052602160045260246000fd5b815260200160016004811115620006be577f4e487b7100000000000000000000000000000000000000000000000000000000600052602160045260246000fd5b6004811115620006f7577f4e487b7100000000000000000000000000000000000000000000000000000000600052602160045260246000fd5b81526020016001600481111562000737577f4e487b7100000000000000000000000000000000000000000000000000000000600052602160045260246000fd5b600481111562000770577f4e487b7100000000000000000000000000000000000000000000000000000000600052602160045260246000fd5b815260200160016004811115620007b0577f4e487b7100000000000000000000000000000000000000000000000000000000600052602160045260246000fd5b6004811115620007e9577f4e487b7100000000000000000000000000000000000000000000000000000000600052602160045260246000fd5b81526020016001600481111562000829577f4e487b7100000000000000000000000000000000000000000000000000000000600052602160045260246000fd5b600481111562000862577f4e487b7100000000000000000000000000000000000000000000000000000000600052602160045260246000fd5b815260200160016004811115620008a2577f4e487b7100000000000000000000000000000000000000000000000000000000600052602160045260246000fd5b6004811115620008db577f4e487b7100000000000000000000000000000000000000000000000000000000600052602160045260246000fd5b8152602001600160048111156200091b577f4e487b7100000000000000000000000000000000000000000000000000000000600052602160045260246000fd5b600481111562000954577f4e487b7100000000000000000000000000000000000000000000000000000000600052602160045260246000fd5b81526020016002600481111562000994577f4e487b7100000000000000000000000000000000000000000000000000000000600052602160045260246000fd5b6004811115620009cd577f4e487b7100000000000000000000000000000000000000000000000000000000600052602160045260246000fd5b81526020016002600481111562000a0d577f4e487b7100000000000000000000000000000000000000000000000000000000600052602160045260246000fd5b600481111562000a46577f4e487b7100000000000000000000000000000000000000000000000000000000600052602160045260246000fd5b81526020016002600481111562000a86577f4e487b7100000000000000000000000000000000000000000000000000000000600052602160045260246000fd5b600481111562000abf577f4e487b7100000000000000000000000000000000000000000000000000000000600052602160045260246000fd5b81526020016002600481111562000aff577f4e487b7100000000000000000000000000000000000000000000000000000000600052602160045260246000fd5b600481111562000b38577f4e487b7100000000000000000000000000000000000000000000000000000000600052602160045260246000fd5b81526020016002600481111562000b78577f4e487b7100000000000000000000000000000000000000000000000000000000600052602160045260246000fd5b600481111562000bb1577f4e487b7100000000000000000000000000000000000000000000000000000000600052602160045260246000fd5b81526020016002600481111562000bf1577f4e487b7100000000000000000000000000000000000000000000000000000000600052602160045260246000fd5b600481111562000c2a577f4e487b7100000000000000000000000000000000000000000000000000000000600052602160045260246000fd5b81526020016002600481111562000c6a577f4e487b7100000000000000000000000000000000000000000000000000000000600052602160045260246000fd5b600481111562000ca3577f4e487b7100000000000000000000000000000000000000000000000000000000600052602160045260246000fd5b81526020016002600481111562000ce3577f4e487b7100000000000000000000000000000000000000000000000000000000600052602160045260246000fd5b600481111562000d1c577f4e487b7100000000000000000000000000000000000000000000000000000000600052602160045260246000fd5b81526020016002600481111562000d5c577f4e487b7100000000000000000000000000000000000000000000000000000000600052602160045260246000fd5b600481111562000d95577f4e487b7100000000000000000000000000000000000000000000000000000000600052602160045260246000fd5b81526020016002600481111562000dd5577f4e487b7100000000000000000000000000000000000000000000000000000000600052602160045260246000fd5b600481111562000e0e577f4e487b7100000000000000000000000000000000000000000000000000000000600052602160045260246000fd5b81526020016002600481111562000e4e577f4e487b7100000000000000000000000000000000000000000000000000000000600052602160045260246000fd5b600481111562000e87577f4e487b7100000000000000000000000000000000000000000000000000000000600052602160045260246000fd5b81526020016002600481111562000ec7577f4e487b7100000000000000000000000000000000000000000000000000000000600052602160045260246000fd5b600481111562000f00577f4e487b7100000000000000000000000000000000000000000000000000000000600052602160045260246000fd5b81526020016002600481111562000f40577f4e487b7100000000000000000000000000000000000000000000000000000000600052602160045260246000fd5b600481111562000f79577f4e487b7100000000000000000000000000000000000000000000000000000000600052602160045260246000fd5b81526020016002600481111562000fb9577f4e487b7100000000000000000000000000000000000000000000000000000000600052602160045260246000fd5b600481111562000ff2577f4e487b7100000000000000000000000000000000000000000000000000000000600052602160045260246000fd5b81526020016002600481111562001032577f4e487b7100000000000000000000000000000000000000000000000000000000600052602160045260246000fd5b60048111156200106b577f4e487b7100000000000000000000000000000000000000000000000000000000600052602160045260246000fd5b815260200160026004811115620010ab577f4e487b7100000000000000000000000000000000000000000000000000000000600052602160045260246000fd5b6004811115620010e4577f4e487b7100000000000000000000000000000000000000000000000000000000600052602160045260246000fd5b81526020016002600481111562001124577f4e487b7100000000000000000000000000000000000000000000000000000000600052602160045260246000fd5b60048111156200115d577f4e487b7100000000000000000000000000000000000000000000000000000000600052602160045260246000fd5b8152602001600260048111156200119d577f4e487b7100000000000000000000000000000000000000000000000000000000600052602160045260246000fd5b6004811115620011d6577f4e487b7100000000000000000000000000000000000000000000000000000000600052602160045260246000fd5b81526020016002600481111562001216577f4e487b7100000000000000000000000000000000000000000000000000000000600052602160045260246000fd5b60048111156200124f577f4e487b7100000000000000000000000000000000000000000000000000000000600052602160045260246000fd5b8152602001600260048111156200128f577f4e487b7100000000000000000000000000000000000000000000000000000000600052602160045260246000fd5b6004811115620012c8577f4e487b7100000000000000000000000000000000000000000000000000000000600052602160045260246000fd5b81526020016002600481111562001308577f4e487b7100000000000000000000000000000000000000000000000000000000600052602160045260246000fd5b600481111562001341577f4e487b7100000000000000000000000000000000000000000000000000000000600052602160045260246000fd5b81526020016002600481111562001381577f4e487b7100000000000000000000000000000000000000000000000000000000600052602160045260246000fd5b6004811115620013ba577f4e487b7100000000000000000000000000000000000000000000000000000000600052602160045260246000fd5b815260200160026004811115620013fa577f4e487b7100000000000000000000000000000000000000000000000000000000600052602160045260246000fd5b600481111562001433577f4e487b7100000000000000000000000000000000000000000000000000000000600052602160045260246000fd5b81526020016003600481111562001473577f4e487b7100000000000000000000000000000000000000000000000000000000600052602160045260246000fd5b6004811115620014ac577f4e487b7100000000000000000000000000000000000000000000000000000000600052602160045260246000fd5b815260200160036004811115620014ec577f4e487b7100000000000000000000000000000000000000000000000000000000600052602160045260246000fd5b600481111562001525577f4e487b7100000000000000000000000000000000000000000000000000000000600052602160045260246000fd5b81526020016003600481111562001565577f4e487b7100000000000000000000000000000000000000000000000000000000600052602160045260246000fd5b60048111156200159e577f4e487b7100000000000000000000000000000000000000000000000000000000600052602160045260246000fd5b815260200160036004811115620015de577f4e487b7100000000000000000000000000000000000000000000000000000000600052602160045260246000fd5b600481111562001617577f4e487b7100000000000000000000000000000000000000000000000000000000600052602160045260246000fd5b81526020016003600481111562001657577f4e487b7100000000000000000000000000000000000000000000000000000000600052602160045260246000fd5b600481111562001690577f4e487b7100000000000000000000000000000000000000000000000000000000600052602160045260246000fd5b815260200160036004811115620016d0577f4e487b7100000000000000000000000000000000000000000000000000000000600052602160045260246000fd5b600481111562001709577f4e487b7100000000000000000000000000000000000000000000000000000000600052602160045260246000fd5b81526020016003600481111562001749577f4e487b7100000000000000000000000000000000000000000000000000000000600052602160045260246000fd5b600481111562001782577f4e487b7100000000000000000000000000000000000000000000000000000000600052602160045260246000fd5b815260200160036004811115620017c2577f4e487b7100000000000000000000000000000000000000000000000000000000600052602160045260246000fd5b6004811115620017fb577f4e487b7100000000000000000000000000000000000000000000000000000000600052602160045260246000fd5b8152602001600360048111156200183b577f4e487b7100000000000000000000000000000000000000000000000000000000600052602160045260246000fd5b600481111562001874577f4e487b7100000000000000000000000000000000000000000000000000000000600052602160045260246000fd5b815260200160036004811115620018b4577f4e487b7100000000000000000000000000000000000000000000000000000000600052602160045260246000fd5b6004811115620018ed577f4e487b7100000000000000000000000000000000000000000000000000000000600052602160045260246000fd5b8152602001600360048111156200192d577f4e487b7100000000000000000000000000000000000000000000000000000000600052602160045260246000fd5b600481111562001966577f4e487b7100000000000000000000000000000000000000000000000000000000600052602160045260246000fd5b815260200160036004811115620019a6577f4e487b7100000000000000000000000000000000000000000000000000000000600052602160045260246000fd5b6004811115620019df577f4e487b7100000000000000000000000000000000000000000000000000000000600052602160045260246000fd5b81526020016003600481111562001a1f577f4e487b7100000000000000000000000000000000000000000000000000000000600052602160045260246000fd5b600481111562001a58577f4e487b7100000000000000000000000000000000000000000000000000000000600052602160045260246000fd5b81526020016003600481111562001a98577f4e487b7100000000000000000000000000000000000000000000000000000000600052602160045260246000fd5b600481111562001ad1577f4e487b7100000000000000000000000000000000000000000000000000000000600052602160045260246000fd5b81526020016003600481111562001b11577f4e487b7100000000000000000000000000000000000000000000000000000000600052602160045260246000fd5b600481111562001b4a577f4e487b7100000000000000000000000000000000000000000000000000000000600052602160045260246000fd5b81526020016003600481111562001b8a577f4e487b7100000000000000000000000000000000000000000000000000000000600052602160045260246000fd5b600481111562001bc3577f4e487b7100000000000000000000000000000000000000000000000000000000600052602160045260246000fd5b81526020016003600481111562001c03577f4e487b7100000000000000000000000000000000000000000000000000000000600052602160045260246000fd5b600481111562001c3c577f4e487b7100000000000000000000000000000000000000000000000000000000600052602160045260246000fd5b81526020016003600481111562001c7c577f4e487b7100000000000000000000000000000000000000000000000000000000600052602160045260246000fd5b600481111562001cb5577f4e487b7100000000000000000000000000000000000000000000000000000000600052602160045260246000fd5b81526020016003600481111562001cf5577f4e487b7100000000000000000000000000000000000000000000000000000000600052602160045260246000fd5b600481111562001d2e577f4e487b7100000000000000000000000000000000000000000000000000000000600052602160045260246000fd5b81526020016003600481111562001d6e577f4e487b7100000000000000000000000000000000000000000000000000000000600052602160045260246000fd5b600481111562001da7577f4e487b7100000000000000000000000000000000000000000000000000000000600052602160045260246000fd5b81526020016003600481111562001de7577f4e487b7100000000000000000000000000000000000000000000000000000000600052602160045260246000fd5b600481111562001e20577f4e487b7100000000000000000000000000000000000000000000000000000000600052602160045260246000fd5b81526020016003600481111562001e60577f4e487b7100000000000000000000000000000000000000000000000000000000600052602160045260246000fd5b600481111562001e99577f4e487b7100000000000000000000000000000000000000000000000000000000600052602160045260246000fd5b81526020016003600481111562001ed9577f4e487b7100000000000000000000000000000000000000000000000000000000600052602160045260246000fd5b600481111562001f12577f4e487b7100000000000000000000000000000000000000000000000000000000600052602160045260246000fd5b81526020016003600481111562001f52577f4e487b7100000000000000000000000000000000000000000000000000000000600052602160045260246000fd5b600481111562001f8b577f4e487b7100000000000000000000000000000000000000000000000000000000600052602160045260246000fd5b81526020016003600481111562001fcb577f4e487b7100000000000000000000000000000000000000000000000000000000600052602160045260246000fd5b600481111562002004577f4e487b7100000000000000000000000000000000000000000000000000000000600052602160045260246000fd5b81526020016003600481111562002044577f4e487b7100000000000000000000000000000000000000000000000000000000600052602160045260246000fd5b60048111156200207d577f4e487b7100000000000000000000000000000000000000000000000000000000600052602160045260246000fd5b815260200160036004811115620020bd577f4e487b7100000000000000000000000000000000000000000000000000000000600052602160045260246000fd5b6004811115620020f6577f4e487b7100000000000000000000000000000000000000000000000000000000600052602160045260246000fd5b81526020016003600481111562002136577f4e487b7100000000000000000000000000000000000000000000000000000000600052602160045260246000fd5b60048111156200216f577f4e487b7100000000000000000000000000000000000000000000000000000000600052602160045260246000fd5b8152602001600480811115620021ae577f4e487b7100000000000000000000000000000000000000000000000000000000600052602160045260246000fd5b6004811115620021e7577f4e487b7100000000000000000000000000000000000000000000000000000000600052602160045260246000fd5b815260200160048081111562002226577f4e487b7100000000000000000000000000000000000000000000000000000000600052602160045260246000fd5b60048111156200225f577f4e487b7100000000000000000000000000000000000000000000000000000000600052602160045260246000fd5b81526020016004808111156200229e577f4e487b7100000000000000000000000000000000000000000000000000000000600052602160045260246000fd5b6004811115620022d7577f4e487b7100000000000000000000000000000000000000000000000000000000600052602160045260246000fd5b815260200160048081111562002316577f4e487b7100000000000000000000000000000000000000000000000000000000600052602160045260246000fd5b60048111156200234f577f4e487b7100000000000000000000000000000000000000000000000000000000600052602160045260246000fd5b81526020016004808111156200238e577f4e487b7100000000000000000000000000000000000000000000000000000000600052602160045260246000fd5b6004811115620023c7577f4e487b7100000000000000000000000000000000000000000000000000000000600052602160045260246000fd5b815260200160048081111562002406577f4e487b7100000000000000000000000000000000000000000000000000000000600052602160045260246000fd5b60048111156200243f577f4e487b7100000000000000000000000000000000000000000000000000000000600052602160045260246000fd5b81526020016004808111156200247e577f4e487b7100000000000000000000000000000000000000000000000000000000600052602160045260246000fd5b6004811115620024b7577f4e487b7100000000000000000000000000000000000000000000000000000000600052602160045260246000fd5b8152602001600480811115620024f6577f4e487b7100000000000000000000000000000000000000000000000000000000600052602160045260246000fd5b60048111156200252f577f4e487b7100000000000000000000000000000000000000000000000000000000600052602160045260246000fd5b81526020016004808111156200256e577f4e487b7100000000000000000000000000000000000000000000000000000000600052602160045260246000fd5b6004811115620025a7577f4e487b7100000000000000000000000000000000000000000000000000000000600052602160045260246000fd5b8152602001600480811115620025e6577f4e487b7100000000000000000000000000000000000000000000000000000000600052602160045260246000fd5b60048111156200261f577f4e487b7100000000000000000000000000000000000000000000000000000000600052602160045260246000fd5b81526020016004808111156200265e577f4e487b7100000000000000000000000000000000000000000000000000000000600052602160045260246000fd5b600481111562002697577f4e487b7100000000000000000000000000000000000000000000000000000000600052602160045260246000fd5b8152602001600480811115620026d6577f4e487b7100000000000000000000000000000000000000000000000000000000600052602160045260246000fd5b60048111156200270f577f4e487b7100000000000000000000000000000000000000000000000000000000600052602160045260246000fd5b81526020016004808111156200274e577f4e487b7100000000000000000000000000000000000000000000000000000000600052602160045260246000fd5b600481111562002787577f4e487b7100000000000000000000000000000000000000000000000000000000600052602160045260246000fd5b8152602001600480811115620027c6577f4e487b7100000000000000000000000000000000000000000000000000000000600052602160045260246000fd5b6004811115620027ff577f4e487b7100000000000000000000000000000000000000000000000000000000600052602160045260246000fd5b81526020016004808111156200283e577f4e487b7100000000000000000000000000000000000000000000000000000000600052602160045260246000fd5b600481111562002877577f4e487b7100000000000000000000000000000000000000000000000000000000600052602160045260246000fd5b8152602001600480811115620028b6577f4e487b7100000000000000000000000000000000000000000000000000000000600052602160045260246000fd5b6004811115620028ef577f4e487b7100000000000000000000000000000000000000000000000000000000600052602160045260246000fd5b81526020016004808111156200292e577f4e487b7100000000000000000000000000000000000000000000000000000000600052602160045260246000fd5b600481111562002967577f4e487b7100000000000000000000000000000000000000000000000000000000600052602160045260246000fd5b8152602001600480811115620029a6577f4e487b7100000000000000000000000000000000000000000000000000000000600052602160045260246000fd5b6004811115620029df577f4e487b7100000000000000000000000000000000000000000000000000000000600052602160045260246000fd5b815260200160048081111562002a1e577f4e487b7100000000000000000000000000000000000000000000000000000000600052602160045260246000fd5b600481111562002a57577f4e487b7100000000000000000000000000000000000000000000000000000000600052602160045260246000fd5b815260200160048081111562002a96577f4e487b7100000000000000000000000000000000000000000000000000000000600052602160045260246000fd5b600481111562002acf577f4e487b7100000000000000000000000000000000000000000000000000000000600052602160045260246000fd5b815260200160048081111562002b0e577f4e487b7100000000000000000000000000000000000000000000000000000000600052602160045260246000fd5b600481111562002b47577f4e487b7100000000000000000000000000000000000000000000000000000000600052602160045260246000fd5b815260200160048081111562002b86577f4e487b7100000000000000000000000000000000000000000000000000000000600052602160045260246000fd5b600481111562002bbf577f4e487b7100000000000000000000000000000000000000000000000000000000600052602160045260246000fd5b815260200160048081111562002bfe577f4e487b7100000000000000000000000000000000000000000000000000000000600052602160045260246000fd5b600481111562002c37577f4e487b7100000000000000000000000000000000000000000000000000000000600052602160045260246000fd5b815260200160048081111562002c76577f4e487b7100000000000000000000000000000000000000000000000000000000600052602160045260246000fd5b600481111562002caf577f4e487b7100000000000000000000000000000000000000000000000000000000600052602160045260246000fd5b815260200160048081111562002cee577f4e487b7100000000000000000000000000000000000000000000000000000000600052602160045260246000fd5b600481111562002d27577f4e487b7100000000000000000000000000000000000000000000000000000000600052602160045260246000fd5b815260200160048081111562002d66577f4e487b7100000000000000000000000000000000000000000000000000000000600052602160045260246000fd5b600481111562002d9f577f4e487b7100000000000000000000000000000000000000000000000000000000600052602160045260246000fd5b815260200160048081111562002dde577f4e487b7100000000000000000000000000000000000000000000000000000000600052602160045260246000fd5b600481111562002e17577f4e487b7100000000000000000000000000000000000000000000000000000000600052602160045260246000fd5b815260200160048081111562002e56577f4e487b7100000000000000000000000000000000000000000000000000000000600052602160045260246000fd5b600481111562002e8f577f4e487b7100000000000000000000000000000000000000000000000000000000600052602160045260246000fd5b815260200160048081111562002ece577f4e487b7100000000000000000000000000000000000000000000000000000000600052602160045260246000fd5b600481111562002f07577f4e487b7100000000000000000000000000000000000000000000000000000000600052602160045260246000fd5b815260200160048081111562002f46577f4e487b7100000000000000000000000000000000000000000000000000000000600052602160045260246000fd5b600481111562002f7f577f4e487b7100000000000000000000000000000000000000000000000000000000600052602160045260246000fd5b815250600490606462002f94929190620030e1565b5034801562002fa257600080fd5b5060405162005a5438038062005a54833981810160405281019062002fc8919062003306565b3373ffffffffffffffffffffffffffffffffffffffff163160018190555082600281905550816003908051906020019062003005929190620031c5565b5080600560006101000a81548173ffffffffffffffffffffffffffffffffffffffff021916908373ffffffffffffffffffffffffffffffffffffffff160217905550505050620034de565b8280546200305e9062003416565b90600052602060002090601f016020900481019282620030825760008555620030ce565b82601f106200309d57805160ff1916838001178555620030ce565b82800160010185558215620030ce579182015b82811115620030cd578251825591602001919060010190620030b0565b5b509050620030dd919062003217565b5090565b82805482825590600052602060002090601f01602090048101928215620031b25791602002820160005b838211156200318157835183826101000a81548160ff021916908360048111156200315f577f4e487b7100000000000000000000000000000000000000000000000000000000600052602160045260246000fd5b021790555092602001926001016020816000010492830192600103026200310b565b8015620031b05782816101000a81549060ff021916905560010160208160000104928301926001030262003181565b505b509050620031c1919062003217565b5090565b82805482825590600052602060002090810192821562003204579160200282015b8281111562003203578251825591602001919060010190620031e6565b5b50905062003213919062003217565b5090565b5b808211156200323257600081600090555060010162003218565b5090565b60006200324d6200324784620033a9565b62003375565b905080838252602082019050828560208602820111156200326d57600080fd5b60005b85811015620032a15781620032868882620032ef565b84526020840193506020830192505060018101905062003270565b5050509392505050565b600081519050620032bc81620034aa565b92915050565b600082601f830112620032d457600080fd5b8151620032e684826020860162003236565b91505092915050565b6000815190506200330081620034c4565b92915050565b6000806000606084860312156200331c57600080fd5b60006200332c86828701620032ef565b935050602084015167ffffffffffffffff8111156200334a57600080fd5b6200335886828701620032c2565b92505060406200336b86828701620032ab565b9150509250925092565b6000604051905081810181811067ffffffffffffffff821117156200339f576200339e6200347b565b5b8060405250919050565b600067ffffffffffffffff821115620033c757620033c66200347b565b5b602082029050602081019050919050565b6000620033e582620033ec565b9050919050565b600073ffffffffffffffffffffffffffffffffffffffff82169050919050565b6000819050919050565b600060028204905060018216806200342f57607f821691505b602082108114156200344657620034456200344c565b5b50919050565b7f4e487b7100000000000000000000000000000000000000000000000000000000600052602260045260246000fd5b7f4e487b7100000000000000000000000000000000000000000000000000000000600052604160045260246000fd5b620034b581620033d8565b8114620034c157600080fd5b50565b620034cf816200340c565b8114620034db57600080fd5b50565b61256680620034ee6000396000f3fe60806040526004361061009c5760003560e01c806360a75f211161006457806360a75f21146101885780636c6dc85d146101925780638b7afe2e1461019c578063a6045002146101c7578063ba98a00b14610204578063c6610657146102415761009c565b806306fdde03146100a15780630bb4b6aa146100cc5780631d62ebd914610109578063372500ab146101465780635d6080c71461015d575b600080fd5b3480156100ad57600080fd5b506100b661027e565b6040516100c3919061202f565b60405180910390f35b3480156100d857600080fd5b506100f360048036038101906100ee9190611b86565b61030c565b6040516101009190611fad565b60405180910390f35b34801561011557600080fd5b50610130600480360381019061012b9190611b86565b61053b565b60405161013d91906120ba565b60405180910390f35b34801561015257600080fd5b5061015b610584565b005b34801561016957600080fd5b50610172610718565b60405161017f91906120ba565b60405180910390f35b61019061071e565b005b61019a610bd3565b005b3480156101a857600080fd5b506101b1611247565b6040516101be91906120ba565b60405180910390f35b3480156101d357600080fd5b506101ee60048036038101906101e99190611bd8565b61124d565b6040516101fb91906120ba565b60405180910390f35b34801561021057600080fd5b5061022b60048036038101906102269190611c01565b611791565b60405161023891906120ba565b60405180910390f35b34801561024d57600080fd5b5061026860048036038101906102639190611c01565b6117b5565b6040516102759190612014565b60405180910390f35b6000805461028b906122e4565b80601f01602080910402602001604051908101604052809291908181526020018280546102b7906122e4565b80156103045780601f106102d957610100808354040283529160200191610304565b820191906000526020600020905b8154815290600101906020018083116102e757829003601f168201915b505050505081565b6060600760008373ffffffffffffffffffffffffffffffffffffffff1673ffffffffffffffffffffffffffffffffffffffff168152602001908152602001600020805480602002602001604051908101604052809291908181526020016000905b82821015610530578382906000526020600020016040518060600160405290816000820160009054906101000a900460ff1660048111156103d7577f4e487b7100000000000000000000000000000000000000000000000000000000600052602160045260246000fd5b600481111561040f577f4e487b7100000000000000000000000000000000000000000000000000000000600052602160045260246000fd5b81526020016000820160019054906101000a900460ff16600481111561045e577f4e487b7100000000000000000000000000000000000000000000000000000000600052602160045260246000fd5b6004811115610496577f4e487b7100000000000000000000000000000000000000000000000000000000600052602160045260246000fd5b81526020016000820160029054906101000a900460ff1660048111156104e5577f4e487b7100000000000000000000000000000000000000000000000000000000600052602160045260246000fd5b600481111561051d577f4e487b7100000000000000000000000000000000000000000000000000000000600052602160045260246000fd5b815250508152602001906001019061036d565b505050509050919050565b6000600660008373ffffffffffffffffffffffffffffffffffffffff1673ffffffffffffffffffffffffffffffffffffffff168152602001908152602001600020549050919050565b600061058f3361053b565b9050600081116105d4576040517f08c379a00000000000000000000000000000000000000000000000000000000081526004016105cb90612051565b60405180910390fd5b600560009054906101000a900473ffffffffffffffffffffffffffffffffffffffff1673ffffffffffffffffffffffffffffffffffffffff1663a9059cbb33670de0b6b3a76400008461062791906121ea565b6040518363ffffffff1660e01b8152600401610644929190611f84565b602060405180830381600087803b15801561065e57600080fd5b505af1158015610672573d6000803e3d6000fd5b505050506040513d601f19601f820116820180604052508101906106969190611baf565b506000600660003373ffffffffffffffffffffffffffffffffffffffff1673ffffffffffffffffffffffffffffffffffffffff168152602001908152602001600020819055507f1f89f96333d3133000ee447473151fa9606543368f02271c9d95ae14f13bcc67338260405161070d929190611f84565b60405180910390a150565b60025481565b6000600560009054906101000a900473ffffffffffffffffffffffffffffffffffffffff1673ffffffffffffffffffffffffffffffffffffffff166370a08231336040518263ffffffff1660e01b815260040161077b9190611f32565b60206040518083038186803b15801561079357600080fd5b505afa1580156107a7573d6000803e3d6000fd5b505050506040513d601f19601f820116820180604052508101906107cb9190611c2a565b9050600254811015610812576040517f08c379a000000000000000000000000000000000000000000000000000000000815260040161080990612071565b60405180910390fd5b60006002541161082157600080fd5b600560009054906101000a900473ffffffffffffffffffffffffffffffffffffffff1673ffffffffffffffffffffffffffffffffffffffff166323b872dd33306002546040518463ffffffff1660e01b815260040161088293929190611f4d565b602060405180830381600087803b15801561089c57600080fd5b505af11580156108b0573d6000803e3d6000fd5b505050506040513d601f19601f820116820180604052508101906108d49190611baf565b5060006108e160056117e9565b905060006108ef6001611890565b905060006108fd6041611942565b905060006040518060600160405280856004811115610945577f4e487b7100000000000000000000000000000000000000000000000000000000600052602160045260246000fd5b8152602001846004811115610983577f4e487b7100000000000000000000000000000000000000000000000000000000600052602160045260246000fd5b81526020018360048111156109c1577f4e487b7100000000000000000000000000000000000000000000000000000000600052602160045260246000fd5b815250905060006109d18261124d565b905080600660003373ffffffffffffffffffffffffffffffffffffffff1673ffffffffffffffffffffffffffffffffffffffff1681526020019081526020016000206000828254610a229190612194565b92505081905550600760003373ffffffffffffffffffffffffffffffffffffffff1673ffffffffffffffffffffffffffffffffffffffff168152602001908152602001600020829080600181540180825580915050600190039060005260206000200160009091909190915060008201518160000160006101000a81548160ff02191690836004811115610adf577f4e487b7100000000000000000000000000000000000000000000000000000000600052602160045260246000fd5b021790555060208201518160000160016101000a81548160ff02191690836004811115610b35577f4e487b7100000000000000000000000000000000000000000000000000000000600052602160045260246000fd5b021790555060408201518160000160026101000a81548160ff02191690836004811115610b8b577f4e487b7100000000000000000000000000000000000000000000000000000000600052602160045260246000fd5b021790555050507ffd1376f2539f93565cb7adcf0adc3368c001f7cba43dfc7ae9da2cb49e9bb5d78282604051610bc3929190612091565b60405180910390a1505050505050565b6000600254600a610be491906121ea565b90506000600560009054906101000a900473ffffffffffffffffffffffffffffffffffffffff1673ffffffffffffffffffffffffffffffffffffffff166370a08231336040518263ffffffff1660e01b8152600401610c439190611f32565b60206040518083038186803b158015610c5b57600080fd5b505afa158015610c6f573d6000803e3d6000fd5b505050506040513d601f19601f82011682018060405250810190610c939190611c2a565b905081811015610cd8576040517f08c379a0000000000000000000000000000000000000000000000000000000008152600401610ccf90612071565b60405180910390fd5b600060025411610ce757600080fd5b600560009054906101000a900473ffffffffffffffffffffffffffffffffffffffff1673ffffffffffffffffffffffffffffffffffffffff166323b872dd3330856040518463ffffffff1660e01b8152600401610d4693929190611f4d565b602060405180830381600087803b158015610d6057600080fd5b505af1158015610d74573d6000803e3d6000fd5b505050506040513d601f19601f82011682018060405250810190610d989190611baf565b506000600a67ffffffffffffffff811115610ddc577f4e487b7100000000000000000000000000000000000000000000000000000000600052604160045260246000fd5b604051908082528060200260200182016040528015610e1557816020015b610e026119f4565b815260200190600190039081610dfa5790505b5090506000600a67ffffffffffffffff811115610e5b577f4e487b7100000000000000000000000000000000000000000000000000000000600052604160045260246000fd5b604051908082528060200260200182016040528015610e895781602001602082028036833780820191505090505b5090506000805b600a8110156111ae576000610ea4826117e9565b90506000610eb183611890565b90506000610ebe84611942565b905060006040518060600160405280856004811115610f06577f4e487b7100000000000000000000000000000000000000000000000000000000600052602160045260246000fd5b8152602001846004811115610f44577f4e487b7100000000000000000000000000000000000000000000000000000000600052602160045260246000fd5b8152602001836004811115610f82577f4e487b7100000000000000000000000000000000000000000000000000000000600052602160045260246000fd5b81525090506000610f928261124d565b905081898781518110610fce577f4e487b7100000000000000000000000000000000000000000000000000000000600052603260045260246000fd5b602002602001018190525080888781518110611013577f4e487b7100000000000000000000000000000000000000000000000000000000600052603260045260246000fd5b602002602001018181525050808761102b9190612194565b9650600760003373ffffffffffffffffffffffffffffffffffffffff1673ffffffffffffffffffffffffffffffffffffffff168152602001908152602001600020829080600181540180825580915050600190039060005260206000200160009091909190915060008201518160000160006101000a81548160ff021916908360048111156110e3577f4e487b7100000000000000000000000000000000000000000000000000000000600052602160045260246000fd5b021790555060208201518160000160016101000a81548160ff02191690836004811115611139577f4e487b7100000000000000000000000000000000000000000000000000000000600052602160045260246000fd5b021790555060408201518160000160026101000a81548160ff0219169083600481111561118f577f4e487b7100000000000000000000000000000000000000000000000000000000600052602160045260246000fd5b02179055505050505050505080806111a690612316565b915050610e90565b5080600660003373ffffffffffffffffffffffffffffffffffffffff1673ffffffffffffffffffffffffffffffffffffffff16815260200190815260200160002060008282546111fe9190612194565b925050819055507f58479347dae38abe703f730001ab886a8af4e5b18b072a9ca0980e323e472d1d83838360405161123893929190611fcf565b60405180910390a15050505050565b60015481565b60008160200151600481111561128c577f4e487b7100000000000000000000000000000000000000000000000000000000600052602160045260246000fd5b826000015160048111156112c9577f4e487b7100000000000000000000000000000000000000000000000000000000600052602160045260246000fd5b14801561134d57508160400151600481111561130e577f4e487b7100000000000000000000000000000000000000000000000000000000600052602160045260246000fd5b8260200151600481111561134b577f4e487b7100000000000000000000000000000000000000000000000000000000600052602160045260246000fd5b145b15611743576000600481111561138c577f4e487b7100000000000000000000000000000000000000000000000000000000600052602160045260246000fd5b826000015160048111156113c9577f4e487b7100000000000000000000000000000000000000000000000000000000600052602160045260246000fd5b141561141c57600360018154811061140a577f4e487b7100000000000000000000000000000000000000000000000000000000600052603260045260246000fd5b9060005260206000200154905061178c565b60016004811115611456577f4e487b7100000000000000000000000000000000000000000000000000000000600052602160045260246000fd5b82600001516004811115611493577f4e487b7100000000000000000000000000000000000000000000000000000000600052602160045260246000fd5b14156114e65760036002815481106114d4577f4e487b7100000000000000000000000000000000000000000000000000000000600052603260045260246000fd5b9060005260206000200154905061178c565b60026004811115611520577f4e487b7100000000000000000000000000000000000000000000000000000000600052602160045260246000fd5b8260000151600481111561155d577f4e487b7100000000000000000000000000000000000000000000000000000000600052602160045260246000fd5b14156115af576003808154811061159d577f4e487b7100000000000000000000000000000000000000000000000000000000600052603260045260246000fd5b9060005260206000200154905061178c565b600360048111156115e9577f4e487b7100000000000000000000000000000000000000000000000000000000600052602160045260246000fd5b82600001516004811115611626577f4e487b7100000000000000000000000000000000000000000000000000000000600052602160045260246000fd5b1415611679576003600481548110611667577f4e487b7100000000000000000000000000000000000000000000000000000000600052603260045260246000fd5b9060005260206000200154905061178c565b6004808111156116b2577f4e487b7100000000000000000000000000000000000000000000000000000000600052602160045260246000fd5b826000015160048111156116ef577f4e487b7100000000000000000000000000000000000000000000000000000000600052602160045260246000fd5b1415611742576003600581548110611730577f4e487b7100000000000000000000000000000000000000000000000000000000600052603260045260246000fd5b9060005260206000200154905061178c565b5b600360008154811061177e577f4e487b7100000000000000000000000000000000000000000000000000000000600052603260045260246000fd5b906000526020600020015490505b919050565b600381815481106117a157600080fd5b906000526020600020016000915090505481565b600481815481106117c557600080fd5b9060005260206000209060209182820401919006915054906101000a900460ff1681565b600080606442338560405160200161180393929190611ef5565b6040516020818303038152906040528051906020012060001c611826919061238d565b9050600060048281548110611864577f4e487b7100000000000000000000000000000000000000000000000000000000600052603260045260246000fd5b90600052602060002090602091828204019190069054906101000a900460ff1690508092505050919050565b600080606445426118a19190612194565b33856040516020016118b593929190611ef5565b6040516020818303038152906040528051906020012060001c6118d8919061238d565b9050600060048281548110611916577f4e487b7100000000000000000000000000000000000000000000000000000000600052603260045260246000fd5b90600052602060002090602091828204019190069054906101000a900460ff1690508092505050919050565b600080606443426119539190612194565b338560405160200161196793929190611ef5565b6040516020818303038152906040528051906020012060001c61198a919061238d565b90506000600482815481106119c8577f4e487b7100000000000000000000000000000000000000000000000000000000600052603260045260246000fd5b90600052602060002090602091828204019190069054906101000a900460ff1690508092505050919050565b604051806060016040528060006004811115611a39577f4e487b7100000000000000000000000000000000000000000000000000000000600052602160045260246000fd5b815260200160006004811115611a78577f4e487b7100000000000000000000000000000000000000000000000000000000600052602160045260246000fd5b815260200160006004811115611ab7577f4e487b7100000000000000000000000000000000000000000000000000000000600052602160045260246000fd5b81525090565b600081359050611acc816124db565b92915050565b600081519050611ae1816124f2565b92915050565b600081359050611af681612509565b92915050565b600060608284031215611b0e57600080fd5b611b1860606120d5565b90506000611b2884828501611ae7565b6000830152506020611b3c84828501611ae7565b6020830152506040611b5084828501611ae7565b60408301525092915050565b600081359050611b6b81612519565b92915050565b600081519050611b8081612519565b92915050565b600060208284031215611b9857600080fd5b6000611ba684828501611abd565b91505092915050565b600060208284031215611bc157600080fd5b6000611bcf84828501611ad2565b91505092915050565b600060608284031215611bea57600080fd5b6000611bf884828501611afc565b91505092915050565b600060208284031215611c1357600080fd5b6000611c2184828501611b5c565b91505092915050565b600060208284031215611c3c57600080fd5b6000611c4a84828501611b71565b91505092915050565b6000611c5f8383611e3c565b60608301905092915050565b6000611c778383611ec0565b60208301905092915050565b611c8c81612244565b82525050565b611ca3611c9e82612244565b61235f565b82525050565b6000611cb482612126565b611cbe8185612161565b9350611cc983612106565b8060005b83811015611cfa578151611ce18882611c53565b9750611cec83612147565b925050600181019050611ccd565b5085935050505092915050565b6000611d1282612131565b611d1c8185612172565b9350611d2783612116565b8060005b83811015611d58578151611d3f8882611c6b565b9750611d4a83612154565b925050600181019050611d2b565b5085935050505092915050565b611d6e8161229f565b82525050565b611d7d8161229f565b82525050565b6000611d8e8261213c565b611d988185612183565b9350611da88185602086016122b1565b611db1816124a9565b840191505092915050565b6000611dc9600983612183565b91507f6e6f2072657761726400000000000000000000000000000000000000000000006000830152602082019050919050565b6000611e09600e83612183565b91507f416d6f756e7420746f6f206c6f770000000000000000000000000000000000006000830152602082019050919050565b606082016000820151611e526000850182611d65565b506020820151611e656020850182611d65565b506040820151611e786040850182611d65565b50505050565b606082016000820151611e946000850182611d65565b506020820151611ea76020850182611d65565b506040820151611eba6040850182611d65565b50505050565b611ec981612295565b82525050565b611ed881612295565b82525050565b611eef611eea82612295565b612383565b82525050565b6000611f018286611ede565b602082019150611f118285611c92565b601482019150611f218284611ede565b602082019150819050949350505050565b6000602082019050611f476000830184611c83565b92915050565b6000606082019050611f626000830186611c83565b611f6f6020830185611c83565b611f7c6040830184611ecf565b949350505050565b6000604082019050611f996000830185611c83565b611fa66020830184611ecf565b9392505050565b60006020820190508181036000830152611fc78184611ca9565b905092915050565b60006060820190508181036000830152611fe98186611ca9565b90508181036020830152611ffd8185611d07565b905061200c6040830184611ecf565b949350505050565b60006020820190506120296000830184611d74565b92915050565b600060208201905081810360008301526120498184611d83565b905092915050565b6000602082019050818103600083015261206a81611dbc565b9050919050565b6000602082019050818103600083015261208a81611dfc565b9050919050565b60006080820190506120a66000830185611e7e565b6120b36060830184611ecf565b9392505050565b60006020820190506120cf6000830184611ecf565b92915050565b6000604051905081810181811067ffffffffffffffff821117156120fc576120fb61247a565b5b8060405250919050565b6000819050602082019050919050565b6000819050602082019050919050565b600081519050919050565b600081519050919050565b600081519050919050565b6000602082019050919050565b6000602082019050919050565b600082825260208201905092915050565b600082825260208201905092915050565b600082825260208201905092915050565b600061219f82612295565b91506121aa83612295565b9250827fffffffffffffffffffffffffffffffffffffffffffffffffffffffffffffffff038211156121df576121de6123be565b5b828201905092915050565b60006121f582612295565b915061220083612295565b9250817fffffffffffffffffffffffffffffffffffffffffffffffffffffffffffffffff0483118215151615612239576122386123be565b5b828202905092915050565b600061224f82612275565b9050919050565b60008115159050919050565b6000819050612270826124c7565b919050565b600073ffffffffffffffffffffffffffffffffffffffff82169050919050565b6000819050919050565b60006122aa82612262565b9050919050565b60005b838110156122cf5780820151818401526020810190506122b4565b838111156122de576000848401525b50505050565b600060028204905060018216806122fc57607f821691505b602082108114156123105761230f61244b565b5b50919050565b600061232182612295565b91507fffffffffffffffffffffffffffffffffffffffffffffffffffffffffffffffff821415612354576123536123be565b5b600182019050919050565b600061236a82612371565b9050919050565b600061237c826124ba565b9050919050565b6000819050919050565b600061239882612295565b91506123a383612295565b9250826123b3576123b26123ed565b5b828206905092915050565b7f4e487b7100000000000000000000000000000000000000000000000000000000600052601160045260246000fd5b7f4e487b7100000000000000000000000000000000000000000000000000000000600052601260045260246000fd5b7f4e487b7100000000000000000000000000000000000000000000000000000000600052602160045260246000fd5b7f4e487b7100000000000000000000000000000000000000000000000000000000600052602260045260246000fd5b7f4e487b7100000000000000000000000000000000000000000000000000000000600052604160045260246000fd5b6000601f19601f8301169050919050565b60008160601b9050919050565b600581106124d8576124d761241c565b5b50565b6124e481612244565b81146124ef57600080fd5b50565b6124fb81612256565b811461250657600080fd5b50565b6005811061251657600080fd5b50565b61252281612295565b811461252d57600080fd5b5056fea26469706673582212200fa3276e6316a4bd4406fe70ef07b94b261c1dab8b24928bb8ac26bb60370e3464736f6c63430008000033",
  "immutableReferences": {},
  "source": "// SPDX-License-Identifier: MIT\r\npragma solidity ^0.8.0;\r\n\r\nimport \"@openzeppelin/contracts/token/ERC20/IERC20.sol\";\r\n\r\ncontract SlotMachine {\r\n  string public name = \"WTF Slot Machine\";\r\n\r\n  uint256 public contractBalance;\r\n  uint256 public pricePerSlot;\r\n  uint256[] public rewardsPerRank;\r\n  SlotType[] public coins = [SlotType.BTC, SlotType.BTC, SlotType.BTC, SlotType.BTC, SlotType.BTC, SlotType.BTC, SlotType.ETH, SlotType.ETH, SlotType.ETH, SlotType.ETH, SlotType.ETH, SlotType.ETH, SlotType.ETH, SlotType.ETH, SlotType.ETH, SlotType.ETH, SlotType.ETH, SlotType.ETH, SlotType.ETH, SlotType.BNB, SlotType.BNB, SlotType.BNB, SlotType.BNB, SlotType.BNB, SlotType.BNB, SlotType.BNB, SlotType.BNB, SlotType.BNB, SlotType.BNB, SlotType.BNB, SlotType.BNB, SlotType.BNB, SlotType.BNB, SlotType.BNB, SlotType.BNB, SlotType.BNB, SlotType.BNB, SlotType.BNB, SlotType.BNB, SlotType.BNB, SlotType.BNB, SlotType.BNB, SlotType.CAKE, SlotType.CAKE, SlotType.CAKE, SlotType.CAKE, SlotType.CAKE, SlotType.CAKE, SlotType.CAKE, SlotType.CAKE, SlotType.CAKE, SlotType.CAKE, SlotType.CAKE, SlotType.CAKE, SlotType.CAKE, SlotType.CAKE, SlotType.CAKE, SlotType.CAKE, SlotType.CAKE, SlotType.CAKE, SlotType.CAKE, SlotType.CAKE, SlotType.CAKE, SlotType.CAKE, SlotType.CAKE, SlotType.CAKE, SlotType.CAKE, SlotType.CAKE, SlotType.CAKE, SlotType.CAKE, SlotType.DOGE, SlotType.DOGE, SlotType.DOGE, SlotType.DOGE, SlotType.DOGE, SlotType.DOGE, SlotType.DOGE, SlotType.DOGE, SlotType.DOGE, SlotType.DOGE, SlotType.DOGE, SlotType.DOGE, SlotType.DOGE, SlotType.DOGE, SlotType.DOGE, SlotType.DOGE, SlotType.DOGE, SlotType.DOGE, SlotType.DOGE, SlotType.DOGE, SlotType.DOGE, SlotType.DOGE, SlotType.DOGE, SlotType.DOGE, SlotType.DOGE, SlotType.DOGE, SlotType.DOGE, SlotType.DOGE, SlotType.DOGE, SlotType.DOGE];\r\n\r\n  IERC20 internal wtf_;\r\n\r\n  mapping (address => uint256) playerRewards;\r\n  mapping (address => SlotInfo[]) playerHistory;\r\n\r\n  event ResultOne(\r\n    SlotInfo slot,\r\n    uint256 reward\r\n  );\r\n\r\n  event ResultBatch(\r\n    SlotInfo[] slots,\r\n    uint256[] rewards,\r\n    uint256 totalReward\r\n  );\r\n\r\n  event ClaimRewards(\r\n    address to,\r\n    uint256 rewards\r\n  );\r\n\r\n  constructor(\r\n    uint256 _pricePerSlot,\r\n    uint256[] memory _rewardsPerRank,\r\n    address _token\r\n  ) {\r\n    contractBalance = msg.sender.balance;\r\n    pricePerSlot = _pricePerSlot;\r\n    rewardsPerRank = _rewardsPerRank;\r\n    wtf_ = IERC20(_token);\r\n  }\r\n\r\n  enum SlotType {\r\n    BTC,\r\n    ETH,\r\n    BNB,\r\n    CAKE,\r\n    DOGE\r\n  }\r\n\r\n  struct SlotInfo {\r\n    SlotType slot1;\r\n    SlotType slot2;\r\n    SlotType slot3;\r\n  }\r\n\r\n\r\n  function slotOne() public payable {\r\n    uint256 balnace = wtf_.balanceOf(msg.sender);\r\n    require(balnace >= pricePerSlot, \"Amount too low\");\r\n    require(pricePerSlot > 0);\r\n\r\n    wtf_.transferFrom(msg.sender, address(this), pricePerSlot);\r\n\r\n    SlotType slot1 = randomSlot1(5);\r\n    SlotType slot2 = randomSlot2(1);\r\n    SlotType slot3 = randomSlot3(65);\r\n\r\n    SlotInfo memory newOneSlot = SlotInfo(\r\n      slot1,\r\n      slot2,\r\n      slot3\r\n    );\r\n\r\n    uint256 reward = calculateReward(newOneSlot);\r\n\r\n    playerRewards[msg.sender] += reward;\r\n    playerHistory[msg.sender].push(newOneSlot);\r\n\r\n    emit ResultOne(newOneSlot, reward);\r\n  }\r\n\r\n  function slotTen() public payable {\r\n    uint256 totalPaid = 10 * pricePerSlot;\r\n    uint256 balnace = wtf_.balanceOf(msg.sender);\r\n    require(balnace >= totalPaid, \"Amount too low\");\r\n    require(pricePerSlot > 0);\r\n\r\n    wtf_.transferFrom(msg.sender, address(this), totalPaid);\r\n\r\n    SlotInfo[] memory slotBatch = new SlotInfo[](10);\r\n    uint256[] memory rewards = new uint256[](10);\r\n    uint256 rewardBatch = 0;\r\n\r\n    for (uint256 i = 0; i < 10; i++) {\r\n      SlotType slot1 = randomSlot1(i);\r\n      SlotType slot2 = randomSlot2(i);\r\n      SlotType slot3 = randomSlot3(i);\r\n\r\n      SlotInfo memory newOneSlot = SlotInfo(\r\n        slot1,\r\n        slot2,\r\n        slot3\r\n      );\r\n\r\n      uint256 reward = calculateReward(newOneSlot);\r\n\r\n      slotBatch[i] = newOneSlot;\r\n      rewards[i] = reward;\r\n      rewardBatch += reward;\r\n\r\n      playerHistory[msg.sender].push(newOneSlot);\r\n    }\r\n\r\n    playerRewards[msg.sender] += rewardBatch;\r\n\r\n    emit ResultBatch(slotBatch, rewards, rewardBatch);\r\n\r\n  }\r\n\r\n  function rewardOf(address tokenOwner) public view returns(uint256) {\r\n    return playerRewards[tokenOwner];\r\n  }\r\n\r\n  function historyOf(address tokenOwner) public view returns(SlotInfo[] memory) {\r\n    return playerHistory[tokenOwner];\r\n  }\r\n\r\n  function calculateReward(SlotInfo memory slots) public view returns (uint256) {\r\n    if (slots.slot1 == slots.slot2 && slots.slot2 == slots.slot3) {\r\n      if (slots.slot1 == SlotType.BTC) return rewardsPerRank[1];\r\n      if (slots.slot1 == SlotType.ETH) return rewardsPerRank[2];\r\n      if (slots.slot1 == SlotType.BNB) return rewardsPerRank[3];\r\n      if (slots.slot1 == SlotType.CAKE) return rewardsPerRank[4];\r\n      if (slots.slot1 == SlotType.DOGE) return rewardsPerRank[5];\r\n    }\r\n    return rewardsPerRank[0];\r\n  }\r\n\r\n  function randomSlot1(uint256 seed) internal view returns (SlotType) {\r\n    uint index = uint(keccak256(abi.encodePacked(block.timestamp, msg.sender, seed))) % 100;\r\n    SlotType result = coins[index];\r\n    \r\n    return result;\r\n  }\r\n\r\n  function randomSlot2(uint256 seed) internal view returns (SlotType) {\r\n    uint index = uint(keccak256(abi.encodePacked(block.timestamp + block.gaslimit, msg.sender, seed))) % 100;\r\n    SlotType result = coins[index];\r\n    \r\n    return result;\r\n  }\r\n\r\n  function randomSlot3(uint256 seed) internal view returns (SlotType) {\r\n    uint index = uint(keccak256(abi.encodePacked(block.timestamp + block.number, msg.sender, seed))) % 100;\r\n    SlotType result = coins[index];\r\n    \r\n    return result;\r\n  }\r\n\r\n  function claimRewards() public {\r\n    uint256 rewards = rewardOf(msg.sender);\r\n    require(rewards > 0, \"no reward\");\r\n\r\n    wtf_.transfer(msg.sender, rewards*(10**18));\r\n\r\n    playerRewards[msg.sender] = 0;\r\n\r\n    emit ClaimRewards(msg.sender, rewards);\r\n  }\r\n}",
  "sourcePath": "C:/Users/F9Uf/Desktop/work/wtf-slotmachine/contracts/SlotMachine.sol",
  "compiler": {
    "name": "solc",
    "version": "0.8.0+commit.c7dfd78e.Emscripten.clang"
  },
  "schemaVersion": "3.4.0",
  "updatedAt": "2021-05-24T07:25:41.728Z",
  "networkType": "ethereum",
  "devdoc": {
    "kind": "dev",
    "methods": {},
    "version": 1
  },
  "userdoc": {
    "kind": "user",
    "methods": {},
    "version": 1
  }
}