{
  "contractName": "TokenSwap",
  "abi": [
    {
      "inputs": [
        {
          "internalType": "address",
          "name": "_token1",
          "type": "address"
        },
        {
          "internalType": "address",
          "name": "_owner1",
          "type": "address"
        },
        {
          "internalType": "address",
          "name": "_token2",
          "type": "address"
        },
        {
          "internalType": "address",
          "name": "_owner2",
          "type": "address"
        }
      ],
      "stateMutability": "nonpayable",
      "type": "constructor"
    },
    {
      "inputs": [],
      "name": "owner1",
      "outputs": [
        {
          "internalType": "address",
          "name": "",
          "type": "address"
        }
      ],
      "stateMutability": "view",
      "type": "function"
    },
    {
      "inputs": [],
      "name": "owner2",
      "outputs": [
        {
          "internalType": "address",
          "name": "",
          "type": "address"
        }
      ],
      "stateMutability": "view",
      "type": "function"
    },
    {
      "inputs": [],
      "name": "token1",
      "outputs": [
        {
          "internalType": "contract IERC20",
          "name": "",
          "type": "address"
        }
      ],
      "stateMutability": "view",
      "type": "function"
    },
    {
      "inputs": [],
      "name": "token2",
      "outputs": [
        {
          "internalType": "contract IERC20",
          "name": "",
          "type": "address"
        }
      ],
      "stateMutability": "view",
      "type": "function"
    },
    {
      "inputs": [
        {
          "internalType": "uint256",
          "name": "_amount1",
          "type": "uint256"
        },
        {
          "internalType": "uint256",
          "name": "_amount2",
          "type": "uint256"
        }
      ],
      "name": "swap",
      "outputs": [],
      "stateMutability": "nonpayable",
      "type": "function"
    }
  ],
  "bytecode": "0x608060405234801561001057600080fd5b50604051610c4d380380610c4d83398181016040528101906100329190610153565b836000806101000a81548173ffffffffffffffffffffffffffffffffffffffff021916908373ffffffffffffffffffffffffffffffffffffffff16021790555082600160006101000a81548173ffffffffffffffffffffffffffffffffffffffff021916908373ffffffffffffffffffffffffffffffffffffffff16021790555081600260006101000a81548173ffffffffffffffffffffffffffffffffffffffff021916908373ffffffffffffffffffffffffffffffffffffffff16021790555080600360006101000a81548173ffffffffffffffffffffffffffffffffffffffff021916908373ffffffffffffffffffffffffffffffffffffffff160217905550505050506101ff565b60008151905061014d816101e8565b92915050565b6000806000806080858703121561016957600080fd5b60006101778782880161013e565b94505060206101888782880161013e565b93505060406101998782880161013e565b92505060606101aa8782880161013e565b91505092959194509250565b60006101c1826101c8565b9050919050565b600073ffffffffffffffffffffffffffffffffffffffff82169050919050565b6101f1816101b6565b81146101fc57600080fd5b50565b610a3f8061020e6000396000f3fe608060405234801561001057600080fd5b50600436106100575760003560e01c806325be124e1461005c578063527097251461007a5780637368891414610098578063d21220a7146100b6578063d96073cf146100d4575b600080fd5b6100646100f0565b60405161007191906108c3565b60405180910390f35b610082610116565b60405161008f9190610848565b60405180910390f35b6100a061013c565b6040516100ad9190610848565b60405180910390f35b6100be610162565b6040516100cb91906108c3565b60405180910390f35b6100ee60048036038101906100e991906106df565b610186565b005b600260009054906101000a900473ffffffffffffffffffffffffffffffffffffffff1681565b600360009054906101000a900473ffffffffffffffffffffffffffffffffffffffff1681565b600160009054906101000a900473ffffffffffffffffffffffffffffffffffffffff1681565b60008054906101000a900473ffffffffffffffffffffffffffffffffffffffff1681565b600160009054906101000a900473ffffffffffffffffffffffffffffffffffffffff1673ffffffffffffffffffffffffffffffffffffffff163373ffffffffffffffffffffffffffffffffffffffff16148061022f5750600360009054906101000a900473ffffffffffffffffffffffffffffffffffffffff1673ffffffffffffffffffffffffffffffffffffffff163373ffffffffffffffffffffffffffffffffffffffff16145b61026e576040517f08c379a00000000000000000000000000000000000000000000000000000000081526004016102659061093e565b60405180910390fd5b8160008054906101000a900473ffffffffffffffffffffffffffffffffffffffff1673ffffffffffffffffffffffffffffffffffffffff1663dd62ed3e600160009054906101000a900473ffffffffffffffffffffffffffffffffffffffff16306040518363ffffffff1660e01b81526004016102ec929190610863565b60206040518083038186803b15801561030457600080fd5b505afa158015610318573d6000803e3d6000fd5b505050506040513d601f19601f8201168201806040525081019061033c91906106b6565b101561037d576040517f08c379a00000000000000000000000000000000000000000000000000000000081526004016103749061091e565b60405180910390fd5b80600260009054906101000a900473ffffffffffffffffffffffffffffffffffffffff1673ffffffffffffffffffffffffffffffffffffffff1663dd62ed3e600360009054906101000a900473ffffffffffffffffffffffffffffffffffffffff16306040518363ffffffff1660e01b81526004016103fd929190610863565b60206040518083038186803b15801561041557600080fd5b505afa158015610429573d6000803e3d6000fd5b505050506040513d601f19601f8201168201806040525081019061044d91906106b6565b101561048e576040517f08c379a0000000000000000000000000000000000000000000000000000000008152600401610485906108de565b60405180910390fd5b6104fe60008054906101000a900473ffffffffffffffffffffffffffffffffffffffff16600160009054906101000a900473ffffffffffffffffffffffffffffffffffffffff16600360009054906101000a900473ffffffffffffffffffffffffffffffffffffffff1685610574565b610570600260009054906101000a900473ffffffffffffffffffffffffffffffffffffffff16600360009054906101000a900473ffffffffffffffffffffffffffffffffffffffff16600160009054906101000a900473ffffffffffffffffffffffffffffffffffffffff1684610574565b5050565b60008473ffffffffffffffffffffffffffffffffffffffff166323b872dd8585856040518463ffffffff1660e01b81526004016105b39392919061088c565b602060405180830381600087803b1580156105cd57600080fd5b505af11580156105e1573d6000803e3d6000fd5b505050506040513d601f19601f82011682018060405250810190610605919061068d565b905080610647576040517f08c379a000000000000000000000000000000000000000000000000000000000815260040161063e906108fe565b60405180910390fd5b5050505050565b60008151905061065d816109db565b92915050565b600081359050610672816109f2565b92915050565b600081519050610687816109f2565b92915050565b60006020828403121561069f57600080fd5b60006106ad8482850161064e565b91505092915050565b6000602082840312156106c857600080fd5b60006106d684828501610678565b91505092915050565b600080604083850312156106f257600080fd5b600061070085828601610663565b925050602061071185828601610663565b9150509250929050565b6107248161096f565b82525050565b610733816109b7565b82525050565b600061074660198361095e565b91507f546f6b656e203220616c6c6f77616e636520746f6f206c6f77000000000000006000830152602082019050919050565b600061078660158361095e565b91507f546f6b656e207472616e73666572206661696c656400000000000000000000006000830152602082019050919050565b60006107c660198361095e565b91507f546f6b656e203120616c6c6f77616e636520746f6f206c6f77000000000000006000830152602082019050919050565b6000610806600e8361095e565b91507f4e6f7420617574686f72697a65640000000000000000000000000000000000006000830152602082019050919050565b610842816109ad565b82525050565b600060208201905061085d600083018461071b565b92915050565b6000604082019050610878600083018561071b565b610885602083018461071b565b9392505050565b60006060820190506108a1600083018661071b565b6108ae602083018561071b565b6108bb6040830184610839565b949350505050565b60006020820190506108d8600083018461072a565b92915050565b600060208201905081810360008301526108f781610739565b9050919050565b6000602082019050818103600083015261091781610779565b9050919050565b60006020820190508181036000830152610937816107b9565b9050919050565b60006020820190508181036000830152610957816107f9565b9050919050565b600082825260208201905092915050565b600061097a8261098d565b9050919050565b60008115159050919050565b600073ffffffffffffffffffffffffffffffffffffffff82169050919050565b6000819050919050565b60006109c2826109c9565b9050919050565b60006109d48261098d565b9050919050565b6109e481610981565b81146109ef57600080fd5b50565b6109fb816109ad565b8114610a0657600080fd5b5056fea2646970667358221220d2e283a6be1fe2904e10db7915858c637b63de2514f5e838902bd1f1e777b52f64736f6c63430008000033",
  "immutableReferences": {},
  "source": "// SPDX-License-Identifier: MIT\npragma solidity ^0.8.0;\n\nimport \"@openzeppelin/contracts/token/ERC20/IERC20.sol\";\n\ncontract TokenSwap {\n    IERC20 public token1;\n    address public owner1;\n    IERC20 public token2;\n    address public owner2;\n\n    constructor(\n        address _token1,\n        address _owner1,\n        address _token2,\n        address _owner2\n    ) public {\n        token1 = IERC20(_token1);\n        owner1 = _owner1;\n        token2 = IERC20(_token2);\n        owner2 = _owner2;\n    }\n\n    function swap(uint _amount1, uint _amount2) public {\n        require(msg.sender == owner1 || msg.sender == owner2, \"Not authorized\");\n        require(\n            token1.allowance(owner1, address(this)) >= _amount1,\n            \"Token 1 allowance too low\"\n        );\n        require(\n            token2.allowance(owner2, address(this)) >= _amount2,\n            \"Token 2 allowance too low\"\n        );\n\n        _safeTransferFrom(token1, owner1, owner2, _amount1);\n        _safeTransferFrom(token2, owner2, owner1, _amount2);\n    }\n\n    function _safeTransferFrom(\n        IERC20 token,\n        address sender,\n        address recipient,\n        uint amount\n    ) private {\n        bool sent = token.transferFrom(sender, recipient, amount);\n        require(sent, \"Token transfer failed\");\n    }\n}",
  "sourcePath": "C:/Users/F9Uf/Desktop/work/wtf-slotmachine/contracts/TokenSwap.sol",
  "compiler": {
    "name": "solc",
    "version": "0.8.0+commit.c7dfd78e.Emscripten.clang"
  },
  "schemaVersion": "3.4.0",
  "updatedAt": "2021-05-02T07:35:03.985Z",
  "devdoc": {
    "kind": "dev",
    "methods": {},
    "version": 1
  },
  "userdoc": {
    "kind": "user",
    "methods": {},
    "version": 1
  }
}